:020000040800F2
:100000002862002031030008B32A00086521000897
:10001000B12A0008210F0008095A0008000000005A
:10002000000000000000000000000000790200084D
:100030005914000800000000CD020008ED4000083F
:100040004B0300084B0300084B0300084B03000858
:100050004B0300084B0300084B0300084B03000848
:100060004B0300084B0300084B0300084B03000838
:100070004B0300084B0300084B0300084B03000828
:100080004B0300084B0300084B0300084B03000818
:10009000F11000084B0300084B0300084B03000855
:1000A0004B0300084B0300084B0300084B030008F8
:1000B000E9440008F94400080D4500084B03000816
:1000C0004B0300084B0300084B0300084B030008D8
:1000D0004B030008DD500008815300085956000802
:1000E0004B0300084B0300084B030008354500088C
:1000F000ED4800084B030008494500084B03000881
:100100004B0300084B030008214500084B0300087F
:100110004B0300089D4E00084B0300084B030008EA
:100120004B0300084B0300084B0300084B03000877
:100130004B0300084B0300084B0300084B03000867
:100140004B0300084B0300084B0300084B03000857
:100150004B0300084B0300084B0300084B03000847
:100160004B0300084B0300084B0300084B03000837
:100170004B0300084B0300084B0300084B03000827
:100180004B0300084B03000800F002F800F064F88D
:100190000AA090E8000C82448344AAF10107DA45E2
:1001A00001D100F059F8AFF2090EBAE80F0013F0D0
:1001B000010F18BFFB1A43F0010318474CBC0000A5
:1001C0006CBC00000A444FF0000C10F8013B13F027
:1001D000070408BF10F8014B1D1108BF10F8015BA0
:1001E000641E05D010F8016B641E01F8016BF9D193
:1001F00013F0080F1EBF10F8014BAD1C0C1B09D1EA
:100200006D1E58BF01F801CBFAD505E014F8016B5B
:1002100001F8016B6D1EF9D59142D6D370470000ED
:100220000023002400250026103A28BF78C1FBD8FF
:10023000520728BF30C148BF0B607047642900F0E7
:100240000381732900F03E82002070471FB50AF039
:10025000BCFA1FBD10B510BD00F0B0FA1146FFF793
:10026000F5FF06F0E3FC00F0CEFA03B4FFF7F2FF6F
:1002700003BC06F005FB00002A4B19680868B0E8CB
:10028000F04F80F30988BFF36F8F4FF0000080F3C9
:10029000118870470000000006480068006880F37D
:1002A000088862B661B6BFF34F8FBFF36F8F00DF70
:1002B00000BF00BF08ED00E0DFF80C00016841F46A
:1002C00070010160704700BF88ED00E0EFF3098026
:1002D000BFF36F8F134B1A681EF0100F08BF20ED8D
:1002E000108A20E9F04F106008B44FF0500080F3FE
:1002F0001188BFF34F8FBFF36F8F08F017FE4FF0D9
:10030000000080F3118808BC19680868B0E8F04F55
:100310001EF0100F08BFB0EC108A80F30988BFF3FD
:100320006F8F704730010020EFF3058070470000A9
:100330000948804709480047FEE7FEE7FEE7FEE779
:10034000FEE7FEE7FEE7FEE7FEE7FEE704480549B5
:10035000054A064B7047000001410008890100086A
:10036000285C002028620020285E0020285E0020F3
:10037000704700000FB4044910B503AA029800F0BA
:10038000A5F910BC5DF814FB1C0100202DE9F0411B
:100390000E460446002020622046E168884730B3BC
:1003A000252805D0D4E901219047206A401CF2E7B6
:1003B000E168204600278847050018D0A5F14100D4
:1003C000192802D820354FF40067324629462046C6
:1003D0002760FFF733FF40B1012804D0F61D26F057
:1003E00007060836D8E7361DD6E72846DAE7206A3A
:1003F000BDE8F08170B50C460546012A05D0287885
:10040000800600D5EA69002302E0012305E05B1CB9
:10041000934202D2E05C0028F9D1A869E618C01A1C
:10042000A861286A184428622846AFF3008004E0D7
:10043000D5E9012114F8010B9047B442F8D32846BE
:10044000AFF3008070BD00002DE9F04106460024A6
:1004500010687529314616A510D0AFF3008000282A
:1004600002DA404213A507E031688A0701D512A5D8
:1004700002E0490704D511A5012401E0AFF3008093
:1004800000210A2206F1240709E0B0FBF2FCB0FBD0
:10049000F2F302FB1C00303078541846491C002847
:1004A000F3D123462A463046BDE8F04100F086B835
:1004B000000000002D0000002B00000020000000C4
:1004C000032A40F2308010F0030C00F0158011F880
:1004D000013BBCF1020F624498BF11F801CB00F858
:1004E000013B38BF11F8013BA2F1040298BF00F8AC
:1004F00001CB38BF00F8013B11F0030300F0F88096
:10050000083AC0F0088051F8043B083A51F804CB8F
:10051000A0E80810F5E7121D5CBF51F8043B40F855
:10052000043BAFF30080D20724BF11F8013B11F860
:1005300001CB48BF11F8012B24BF00F8013B00F8A4
:1005400001CB48BF00F8012B704702F0FF0343EADC
:10055000032242EA024200F002B84FF000020429EE
:10056000C0F0128010F0030C00F0F680CCF1040C07
:10057000BCF1020F18BF00F8012BA8BF20F8022B16
:10058000A1EB0C0100F0E8B85FEAC17C24BF00F8E1
:10059000012B00F8012B48BF00F8012B7047704772
:1005A00070477047704710B500F0FCF8006810BD48
:1005B00010B5044600F0F6F8046010BD2DE9F047D0
:1005C0000D4699469246044600F1240801688806C3
:1005D00004D5E06921F01001216000E00120A8426B
:1005E00001DD471B00E00027A1697A1902EB090031
:1005F000081AA0612078C00602D42046AFF300801C
:10060000002608E0D4E901211AF806009047206A84
:10061000401C761C20624E45F4DB2078C0060AD5CB
:100620002046AFF3008006E0D4E901213020904756
:10063000206A401C2062381EA7F10107F4DC07E0A5
:10064000D4E9012118F805009047206A401C206277
:10065000281EA5F10105F3DC2046AFF300802078C9
:10066000000602D50220BDE8F0870120FBE700006C
:1006700001694A1C02610878704700B58FB0CDE966
:1006800001310021059105497944CDE90310114656
:100690006846FFF77BFE0FB000BD0000E5FFFFFFDF
:1006A00010B5436913B1AFF3008001E0FFF7A2FE7C
:1006B000012010BD127800F124010A7000224A7056
:1006C0000122EDE711684FF0FF32E9E7074B70B503
:1006D0000D467B44FFF7D1FF0446284600F066F83C
:1006E00010B14FF0FF3070BD204670BD03650000B3
:1006F00010B5203AC0F00B80B1E81850203AA0E8BD
:100700001850B1E81850A0E81850BFF4F5AF5FEAF0
:10071000027C24BFB1E81850A0E8185044BF18C9A3
:1007200018C0BDE810405FEA827C24BF51F8043B4A
:1007300040F8043B08BF7047D20728BF31F8023B9E
:1007400048BF11F8012B28BF20F8023B48BF00F832
:10075000012B70474FF0000200B5134694469646B1
:10076000203922BFA0E80C50A0E80C50B1F12001C4
:10077000BFF4F7AF090728BFA0E80C5048BF0CC072
:100780005DF804EB890028BF40F8042B08BF7047D0
:1007900048BF20F8022B11F0804F18BF00F8012B42
:1007A0007047000000487047C85B0020007B00F0E5
:1007B0008000704700487047C85B00207546FFF70F
:1007C000F9FFAE4605006946534620F0070085460E
:1007D00018B020B5FFF7BAFDBDE820404FF0000685
:1007E0004FF000074FF000084FF0000B21F0070119
:1007F000AC46ACE8C009ACE8C009ACE8C009ACE85C
:10080000C0098D46704710B50446AFF300802046FE
:10081000BDE81040FFF729BD0029816802D041F0F2
:10082000010101E021F0010181607047084B10B522
:10083000D3F8042307490A40D0E900142143D0E942
:100840000240044321431143C3F8041310BD0000C8
:1008500000200140E030FCFFC06C80B270470246CF
:10086000002012680A4200D00120704730B542686B
:100870000F4B0C791A400B6842EA04221343436081
:1008800082680C4B4D791A40D1E9034323438C68AD
:1008900044EA4504234313438360C26A097D22F47A
:1008A0007002491EC9B242EA0151C16230BD000066
:1008B000FFFEFFFCFDF7FFC070B5072609290AD926
:1008C000C568A1F10A0404EB4404A640B543A34063
:1008D0001D43C56007E0056901EB4104A640B5432F
:1008E000A3401D4305611F23072A09D2446B521EF2
:1008F00002EB820293409C4391400C43446370BDE1
:100900000D2A09D2046BD21F02EB820293409C4352
:1009100091400C43046370BDC46A0D3A02EB82023D
:1009200093409C4391400C43C46270BD816841F088
:10093000804181607047000030B5584887B0D0EDE5
:10094000000A9FED571A9FED570A10EE810AB3EE89
:100950000B1AC0EE010ABDEEE00A10EE103A642B4D
:1009600000DD64235048D0ED000A9FED500A60EE90
:10097000800AFDEEE00A10EE900A002800DA4042FC
:100980004B49D1ED000A60EE800AFDEEE00A10EE60
:10099000901A002900DA4942464C2278AAB1002276
:1009A0002270454C2578012D11D0444D002AB5F90F
:1009B00004406CD0B5F90220B5F9001007B0234609
:1009C000BDE830403EA0FFF7D5BC0122E8E7404833
:1009D000D0ED000A3F48BDEEE01AD0ED000A3E48D7
:1009E000FDEEE01AD0ED000A3C48BDEEE02AD0ED65
:1009F000002ADFED3B0A3B4872EEA02A62EE802A15
:100A0000FDEEE22ACDED022A8DED032ACDED041A8A
:100A10008DED051A90ED001A334831EE201AD0ED15
:100A2000001A324871EEA01A21EE001A61EE801A07
:100A3000BDEEC11AFDEEE11ACDED001A8DED011AE1
:100A400090ED001A2A4831EE201A21EE001ABDEE70
:100A5000C11A11EE103A90ED001A264831EE201A14
:100A600021EE001ABDEEC11A11EE102A90ED001A07
:100A700021A071EE200A20EE800ABDEEC00A10EE21
:100A8000101AFFF777FC0020207007B030BDCAB203
:100A9000C1B221A00094FFF76DFCF6E7180000201A
:100AA00000007A4400401C46505B00200000C84211
:100AB000645B0020D402002023020020F402002006
:100AC0007B4225643A25643A25647D2400000000B9
:100AD000B0010020AC010020A8010020CC010020C2
:100AE000C3F5C83FC8010020C4010020C001002098
:100AF000BC010020B80100207B4325643A25643AFC
:100B000025643A25643A25643A25643A25643A25F1
:100B1000643A25647D2400007B4125643A25643ACB
:100B200025643A25647D240030B58DB00121022072
:100B300002F0F4FD01210D02284602F007FE032019
:100B400002218DF82C000A9100248DF82F400AA96B
:100B5000134801F0EDF80121284602F003FE0021C0
:100B6000284602F0FFFD069468020994CDE90704C7
:100B700006A8FFF75BFE8DF8044000948DF8054051
:100B8000029404940120074C8DF814006946204615
:100B9000FFF76CFE01212046FFF73EFE0DB030BD91
:100BA000000402400020014070B58CB001210220F9
:100BB00002F0B4FD01214E02304602F0C7FD0320D1
:100BC0008DF82C00012500240A958DF82F400AA9E4
:100BD000134801F0ADF80121304602F0C3FD0021B9
:100BE000304602F0BFFD069468040994CDE907047D
:100BF00006A8FFF71BFE8DF8044000948DF8054011
:100C000002940494074C8DF8145069462046FFF76F
:100C10002DFE01212046FFF7FFFD0CB070BD000046
:100C2000000402400021014088B005F0E1FFDFF838
:100C30009892DFF898A2DFF898B2A64DA64EA74F7B
:100C4000DFF89C8206900A2106A807F09DFFA54CBC
:100C500040F6B8316068884201DA401C606001F0FB
:100C6000B5F9A1480068012801D103F047F89F4871
:100C700000680028E7D12078401CC0B220706428AA
:100C800099F8000012D990B99AF80000A8B99BF819
:100C90000000C0B99FED960A964880ED000A96487C
:100CA00080ED000A954880ED000A0FE010B101F0D8
:100CB000BDF816E09AF8000010B102F0D5FD10E082
:100CC0009BF8000010B102F0D9FA0AE08B4890EDD1
:100CD000001A8948D0ED000A864890ED000A00F01D
:100CE000BDFB01F0EBFC00F087FC854890ED000AAD
:100CF000BDEEC00A10EE100A04F0A8F850B10020B2
:100D0000059002900390049000900346024601462D
:100D100001907FE07B4CD4ED020A94ED000A01F0D3
:100D2000BFFB00EE100AB8EEC00A84ED010AD5ED53
:100D3000020A95ED000A01F0F1FB00EE100AB8EE90
:100D4000C00A85ED010AD6ED020A96ED000A01F00F
:100D500023FC00EE100A6C4BB8EEC00A86ED010AC7
:100D6000D3ED020A93ED000A01F054FC00EE100AE4
:100D700044F23C10B8EEC00A83ED010A01F0DAFC3F
:100D800062480078E8B3012862D002287FF45BAFA4
:100D90005F48D8ED000A97ED000A90ED001A5D4813
:100DA000FDEEE00ABDEEC11AD0ED001ABDEEC00A9C
:100DB0005948FDEEE11ACDED021A8DED031ACDED85
:100DC000040A8DED050A90ED000A5448BDEEC00AF4
:100DD000D0ED000AFDEEE00ACDED000A8DED010A2E
:100DE00093ED010ABDEEC00A10EE103A96ED010A2D
:100DF000BDEEC00A10EE102A95ED010ABDEEC00A44
:100E000000E00AE010EE101A94ED010ABDEEC00AEF
:100E100010EE100A03F06CF815E73D4897ED000A54
:100E2000D0ED000A3B48BDEEC01A98ED000AD0EDA7
:100E3000001AFDEEE00ABDEEC00AFDEEE11ACDEDAE
:100E4000021ACDED030A8DED040A8DED051A19E0A5
:100E50002F48D8ED000A97ED000A90ED001A2D48B2
:100E6000FDEEE00ABDEEC11AD0ED001ABDEEC00ADB
:100E7000FDEEE11ACDED021A8DED031ACDED040A57
:100E80008DED050A244890ED000A2448BDEEC00A05
:100E9000D0ED000AFDEEE00ACDED000A8DED010A6D
:100EA00093ED010ABDEEC00A10EE103A96ED010A6C
:100EB000B1EE400ABDEEC00A10EE102A95ED010A0F
:100EC000B1EE400A9AE70000B5010020B60100200B
:100ED000B4010020645B0020785B0020DC0000206F
:100EE000D80000203802002010010020D40100208A
:100EF00000000000E4010020E8010020EC010020D7
:100F000018000020505B00208C5B0020A501002011
:100F1000D4000020D0000020CC000020C800002019
:100F2000FEE700001CB50121084602F0F7FB4FF474
:100F30008070009001208DF8040000218DF80610CB
:100F400003218DF805108DF807006946014800F06F
:100F5000EFFE1CBD000002402DE9FE4F0024D8B377
:100F6000D1B3CAB3C3B3401E491EC7B2CEB2521EDC
:100F70005B1E02F0FF099DB20121082002F0CEFBAA
:100F80000121480602F0D6FB02218DF804104FF033
:100F9000030B4FF000088DF806808DF805B04FF078
:100FA000010ACDF800B08DF807A069464D4800F061
:100FB000BFFE092200214B4800F0F6FE0922012164
:100FC000484800F0F1FE4848C0F80080016841F050
:100FD00001010160021D09E0FFE70120BDE8FE8F6D
:100FE000641CA4B2642C01D90220F7E71168C90778
:100FF000F6D03D4801680160016801600168016048
:10100000016841F010010160016801600168016040
:10101000354943461C31C1F80080D1F80080DDF825
:1010200030C048EA8C7CC1F800C0D1F800C04CEA5E
:1010300007670F600F6847EA06560E600F6847EAB9
:1010400009460E600E682E430E60016821F0010112
:1010500001604FF6F07005E0641CA4B2844201D92F
:101060000320BBE71168C907F6D12048016841F0A9
:10107000010101601D491C310A6822F001020A6069
:101080001A4A0C32146844F001041460021D1468FA
:101090001460164A143214681460144A4032136003
:1010A000121D13600A6842F001020A6001680360C1
:1010B0000D481430016841F00201016014208DF8E0
:1010C00008008DF809A08DF80AB08DF80BA002A8D1
:1010D00001F0F0FC01220221034800F06DF900202C
:1010E0007CE70000000C0240006400400066004005
:1010F00000B588B002A907A8CDE9000106AB05AA92
:1011000004A9002000F060F80498A0F580718139EE
:1011100041D122490120087021490020087021494D
:101120000870214908702149087021490870214937
:1011300008709DF809009DF8081000EB012000B22E
:1011400000EE100A1D48F8EEC00A9FED1B0A80EE63
:10115000801A80ED001A9DF80B009DF80A1000EB34
:10116000012000B200EE900A1548F8EEE00A80EE89
:10117000801A80ED001A9DF80D009DF80C1000EB10
:10118000012000B200EE900A0E48F8EEE00A80EE70
:10119000801A80ED001A08B000BD0000B7010020E1
:1011A000B4010020B6010020B50100200402002097
:1011B000050200203802002000007A44E4010020EB
:1011C000E8010020EC010020F0B5224CDDE90575B6
:1011D00004EB0014D4F8B06516F004061670D4F8C9
:1011E000B02532D0D2080A60D4F8B01501F002015F
:1011F0001970D4F8B41501F00F013970D4F8B8158E
:101200002970D4F8B815090A6970D4F8B815090C12
:10121000A970D4F8B815090EE970D4F8BC15297175
:10122000D4F8BC15090A6971D4F8BC15090CA97168
:10123000D4F8BC15090EE97148B1012804D106485B
:10124000016841F020010160F0BD520DCBE702487A
:10125000001FF5E7006000401064004038B500242E
:10126000009108232246214600F014F8054640F676
:10127000FF7301E0641CA4B2284600F06BF8072855
:1012800001D09C42F6D39C4201D3012038BD0020FE
:1012900038BD0000F0B506462C48059D0468640181
:1012A00001D5002008E00468240101D5012003E0F5
:1012B0000068C00046D50220254C002704EB00142E
:1012C000C4F88075E9B3F600D4F880753743C4F8E4
:1012D0008075D4F8806546EA8101C4F88015D4F899
:1012E000801541EA4201C4F88015D4F8842503F042
:1012F0000F0122F00F02C4F88425D4F884250A4394
:10130000C4F884252979EA796B7941EA0261AA79DE
:10131000120442EA03221143C4F88C152978EA78B2
:101320006B7841EA0261AA78120442EA032211436F
:10133000C4F88815D4F8801541F00101C4F880156F
:10134000F0BD01E0FF20FBE77605BDE70864004043
:1013500000600040174928B1012810D002281BD096
:101360000520704708680A6800F0010002F00202D8
:101370000243086800F0806042EA10607047086825
:101380000A6800F0010002F002020243086800F05F
:10139000006042EA5060704708680A6800F0010087
:1013A00002F002020243086800F0805042EA9060B6
:1013B0007047000008640040002A426901D00A43D7
:1013C00000E08A43426170477CB5144C00206D46B2
:1013D000215C2954401CC0B20828F9D3294640F2A8
:1013E0000110FFF73BFF00202118097A2954401C07
:1013F000C0B20828F8D369464FF48170FFF72EFF7A
:1014000000202118097C2954401CC0B20828F8D3B8
:10141000694640F20310FFF721FF7CBD92070020D0
:1014200030B503460020012908D10022094C03E011
:10143000A55C6840521CD2B29A42F9D3002908D167
:10144000044A323203E0545C6040491CC9B29942FC
:10145000F9D330BD92070020704700002DE9F0411C
:101460005C4FDFF874815D4E38785D4B5D4A5E4CB1
:101470005E4DB0EE0C4AB8EE0C3A50B902F08AFD5F
:101480005B4890ED000A90ED012A90ED021A387841
:1014900078B3C0B2F6EE000A012854D002287DD1FC
:1014A000D6ED001A61EE211AB0EE401A01EEE01AF4
:1014B00001EEA00AF0EE430A83ED021AB0EE412AD3
:1014C00082ED020AB0EE441AB0EE420A06F0F9FFCD
:1014D00083ED020A92ED020AB0EE441AF0EE430ADE
:1014E00006F0EFFF82ED020A9FED420A84ED020A48
:1014F0006BE0FFE772EE002AD8ED001AD6ED003A55
:1015000030EE420AF0EE620A71EEA31AB0EE402A03
:1015100041EE612A01EE612A41EE210A01EE210A23
:10152000F0EE431AC3ED022A82ED022AC4ED020A4C
:10153000F0EE623A85ED020AB0EE441AF0EE610A6E
:10154000B0EE630A1FE0D6ED001A98ED002A71EEA6
:10155000821A61EE811AB0EE401A01EEE01A01EE35
:10156000A00AF0EE431AF0EE610A83ED021A82ED52
:10157000021AB0EE412A84ED020A85ED020AB0EEAD
:10158000441AB0EE420A06F09CFF83ED020A92ED87
:10159000020AB0EE441AF0EE610A00E017E006F02D
:1015A00090FF82ED020A94ED020AB0EE441AF0EECA
:1015B000610A06F086FF84ED020A95ED020AB0EE9C
:1015C000441AF0EE610A06F07CFF85ED020ABDE8E0
:1015D000F0810000A5010020FC010020F80100209E
:1015E000505B0020645B0020785B00208C5B002057
:1015F000445B0020000000002DE9F04F05F032FBB5
:10160000614890ED000A02F0C5FA6049B1F9001096
:1016100008445F4908605F4890ED000A02F0BAFA9A
:101620005D49B1F9001008445C4908605C4890EDE0
:10163000000A02F0AFFA5B495B4CB1F900100844B4
:1016400020605A4890ED000A02F0A4FA5849594D1A
:10165000B1F9001008442860574890ED000A02F0E4
:1016600099FA5649564EB1F9001008443060554871
:1016700090ED000A02F08EFA5349544FB1F9001070
:101680000844386005F04CFB4148514A90ED000A8F
:10169000F8EEC00A92ED000A01F0FCFE4D484E4BF8
:1016A00080ED000A3D4890ED000AF8EEC00A93ED87
:1016B000000A01F025FFDFF8248188ED000A94ED8F
:1016C000000A474CF8EEC00A94ED000A01F04EFF04
:1016D000DFF8109189ED000A95ED000A424DF8EE11
:1016E000C00A95ED000A01F077FFDFF800B18BED3D
:1016F000000A96ED000A3E4EF8EEC00A96ED000A8A
:1017000001F0A0FFDFF8ECA08AED000A97ED000AD7
:10171000394FF8EEC00A97ED000A01F0C9FF3748CB
:1017200080ED000A2B48D2ED000A90ED001A70EE11
:10173000810AC2ED000AD3ED000A98ED001A70EE9E
:10174000810AC3ED000AD4ED000A99ED001A70EE8B
:10175000810AC4ED000AD5ED000A9BED001A70EE77
:10176000810AC5ED000AD6ED000A9AED001A70EE66
:10177000810AC6ED000AD7ED000A30EE800A87ED37
:10178000000ABDE8F08F0000B8010020040100202D
:1017900008020020BC010020060100200C020020ED
:1017A000C00100200801002010020020C401002018
:1017B0000A01002014020020C80100200C010020B2
:1017C00018020020CC0100200E0100201C02002085
:1017D000C8000020E0000020CC000020E400002031
:1017E000D0000020E8000020D4000020EC00002001
:1017F000D8000020F0000020DC000020F4000020D1
:101800001CB50121082001F089FF0820009000206C
:101810008DF8040003208DF8050001208DF80700E5
:101820006946024800F084FA1CBD0000000C02402A
:10183000F0B5012189B0084601F07CFF01210320A9
:1018400001F06CFF03258DF8055002264FF400408F
:101850008DF8046001242B4F00908DF806408DF820
:1018600007406946384600F063FA8DF805508DF858
:1018700004608DF806408DF807400820224C009047
:101880006946204600F054FA01220F21384600F044
:101890008BFA01220321204600F086FA02A803F009
:1018A000CBFA00244FF6FF70ADF80840039075079F
:1018B000ADF81040ADF80A4002A9284603F07EFAC0
:1018C00000231A460321284603F099F805A803F0DF
:1018D00019F9ADF81C4005A9284603F0BDF801210F
:1018E000284603F071F801221146284603F012F948
:1018F0000021284603F038FA0121284603F06AF84F
:1019000009B0F0BD000002400004024030B589B0CB
:101910000121022001F00EFF0121022001F0FEFE54
:101920003020039003208DF8110002208DF8100064
:1019300001208DF81200224C8DF8130003A92046D7
:1019400000F0F6F902220421204600F02DFA0222CE
:101950000521204600F028FA684603F06DFA0024BD
:101960004FF6FF70174DADF800400190ADF80840FC
:10197000ADF802406946284603F020FA00231A46D3
:101980000321284603F03BF805A803F0BBF8ADF8A7
:101990001C4005A9284603F05FF80121284603F002
:1019A00013F801221146284603F0B4F80021284616
:1019B00003F0DAF90121284603F00CF809B030BD34
:1019C000000402400004004030B589B00121042029
:1019D00001F0B0FE0121022001F0A0FEC020039022
:1019E00003208DF8110002208DF8100001208DF8E1
:1019F0001200224C8DF8130003A9204600F098F93C
:101A000002220621204600F0CFF9022207212046BB
:101A100000F0CAF9684603F00FFA00244FF6FF7091
:101A2000174DADF800400190ADF80840ADF8024008
:101A30006946284603F0C2F900231A4603212846C6
:101A400002F0DDFF05A803F05DF8ADF81C4005A924
:101A5000284603F001F80121284602F0B5FF0122D3
:101A60001146284603F056F80021284603F07CF979
:101A70000121284602F0AEFF09B030BD000402404B
:101A80000008004030B589B00121082001F052FE65
:101A90000121084601F042FE274C02220021204687
:101AA00000F082F902220121204600F07DF9022196
:101AB0008DF811108DF81010012103208DF81210EF
:101AC00003908DF8131003A9204600F031F9684601
:101AD00003F0B2F900244FF6FF70184DADF8004046
:101AE0000190ADF80840ADF802406946284603F081
:101AF00065F900231A460321284602F080FF05A855
:101B000003F000F8ADF81C4005A9284602F0A4FF38
:101B10000121284602F058FF01221146284602F012
:101B2000F9FF0021284603F01FF90121284602F0A1
:101B300051FF09B030BD000000000240000C004021
:101B400005490028086802D040F4806001E020F4D4
:101B50008060086070470000003C024070B5064697
:101B6000002529B1012927D0022928D04FF440753A
:101B700000F080F809281ED1124C206820F4407033
:101B80002060206828432060206820F0F800206052
:101B9000206846F0020108432060206840F480304D
:101BA000206000F067F8216821F0020121602168BF
:101BB00021F0F801216070BD4FF48075D8E74FF433
:101BC0000075D5E7103C02400D4909200A68D20390
:101BD00001D5012070470A68D20601D5062070475A
:101BE0000A68D20501D5022070470A6812F0EF0F8B
:101BF00001D00720704709688907FBD50820704786
:101C00000C3C02400248016841F00041016070470D
:101C1000103C024070B50D46064600F02BF809282E
:101C200013D10A4C206820F440702060206840F4F2
:101C300080702060206840F001002060358000F056
:101C400019F8216821F00101216070BD103C0240AB
:101C500005480068002805DA034804490C3801608B
:101C60000349016070470000103C024023016745B2
:101C7000AB89EFCD08B509208DF80000FFF7A4FF70
:101C80008DF800009DF800000128F7D09DF80000B5
:101C900008BD000000B50A221649174801F0E0FF10
:101CA00014484FF6FF7215490388934215D14388B3
:101CB000934212D1838893420FD1C38893420CD1AF
:101CC0000389934209D14389934206D100200880B9
:101CD00048808880C88008810AE002880A8042889B
:101CE0004A8082888A80C288CA8002890A814089A3
:101CF000488100BDE4070020000004080401002022
:101D00000848094902880A8042884A8082888A8075
:101D1000C288CA8002890A81408948810A22034810
:101D200001F0AABF04010020E4070020000004081D
:101D3000F0B5002201274FF0030C0B6807FA02F5FB
:101D40002B40AB422CD1066853000CFA03F4A64397
:101D500006600E79D0F800E09E4046EA0E06066066
:101D60000E79012E01D0022E12D18668A64386601C
:101D70004E79D0F808E09E4046EA0E068660466836
:101D8000AE43466045688E799640B6B235434560AD
:101D9000C568A543C560CC799C40C3681C43C4603A
:101DA000521C102AC9D3F0BD4B07DB0E9A40C9085C
:101DB00010B500EB8100016A0F249C40A143016231
:101DC000016A1143016210BD0183704710B50A4CCE
:101DD0000146072301222046FEF76EFD2046FEF74E
:101DE000A5FD02212046FEF73AFD0028F9D0204645
:101DF000BDE81040FEF730BD0020014010B50A4C90
:101E00000146072301222046FEF756FD2046FEF735
:101E10008DFD02212046FEF722FD0028F9D0204644
:101E2000BDE81040FEF718BD00210140F0B45A484B
:101E30005A490678DFED5A2A5A480D7804785A48EC
:101E400003789FED5A1A5A4ADFED5A1A5A4F9FEDFE
:101E50005B2A5B4897ED000A5A49F1EE400A46B109
:101E6000092B66D2DFE803F0654346494E515659C7
:101E70006200092B24D2DFE803F02305080B1013BE
:101E8000181B200080ED000A0CE080ED000A01E044
:101E900080ED001AC2ED000A6AE0C0ED000AF9E721
:101EA000C0ED000A82ED001A62E0C0ED000A01E018
:101EB00080ED001A82ED000A5AE080ED000AF9E791
:101EC00080ED001A82ED001A012D04D0012C07D0FC
:101ED00081ED001A4CE0C0EE220A20EE820A03E0F7
:101EE000C0EE220A20EEA10A81ED000A40E080ED5A
:101EF000000A0CE080ED000A01E080ED001AC1ED5F
:101F0000001A0EE0C0ED000AF9E7C0ED000A81ED0D
:101F1000001A06E0C0ED000A01E080ED001A81ED34
:101F2000002A012D08D0012C09D00AE080ED000A1A
:101F3000F5E780ED001AEAE781ED002A01E0C1ED46
:101F4000001A022E01D0012E12D1D0ED000AF5EEBA
:101F5000C00AF1EE10FAD1ED000A03D2F1EE600AE8
:101F6000C1ED000A20EE800AC0EE220AC1ED000A8F
:101F7000D0ED000A9FED141A80EE810A80ED000A70
:101F8000D2ED001AC1EE810AC2ED000A91ED001AED
:101F9000F0BCFFF763BA0000A5010020200200207A
:101FA0000000FA4321020020D001002000000000C0
:101FB000E8010020DB0FC9BFA8010020DB0FC93FEB
:101FC000E4010020EC01002000007A4410B502205A
:101FD0002DED048B01F028FC334C2060032001F030
:101FE00023FC6060042001F01FFCA060052001F0CC
:101FF0001BFC2E49E060097821B1012902D0022999
:1020000022D10FE094ED000AA168F8EEC09A94ED99
:10201000010A49424042B8EEC09A00EE101AF8EEAA
:10202000C08A0DE094ED000A6168F8EEC09A49425A
:1020300000EE101AB8EEC09A94ED020AF8EEC08ACB
:1020400000EE100AB8EEC08A9FED191A194829EE61
:10205000810AD0ED000A184860EE201A90ED000ABF
:10206000164881EE802A69EE011A61EEA01A80ED11
:10207000002A81EE802A68EE811A114828EE011AA2
:1020800061EEA01A61EE200A80EE801A80ED002A2F
:102090000C4881EE802A80ED002A0B4880ED001A62
:1020A000BDEC048B10BD0000A05B0020A50100204A
:1020B0000000C842F4010020F0010020505B002025
:1020C000645B0020785B00208C5B00202DE9F041F0
:1020D00000250E4607462C4608E03846FFF776FEF8
:1020E0000544052004F02EFD641CE4B2B442F4D390
:1020F000B5FBF6F080B2BDE8F081000010B5082015
:10210000FFF77CFE07F0ABFF9FED0E1B53EC112B8E
:1021100007F0F4FF9FED0D1B53EC112B07F0EEFFC2
:102120009FED0C1B53EC112B07F0E8FF9FED0B1BF1
:1021300053EC112B07F0E2FF07F034FD00EE100A1C
:1021400010BD00006666666666660A400000000014
:10215000000026400000008014AEEF3F00000000A9
:102160000000303FFEE7000070B50D4C0025C4F8BC
:10217000A8520C48016821F440010160016841F453
:1021800080010160C4F8AC52012004F52A7404F007
:10219000F5FC0120206004F0F1FC256070BD00001A
:1021A00000804042000402401CB50121022001F0E1
:1021B000B5FA4FF44060012400908DF804400020EF
:1021C0008DF8060003208DF805008DF8074069465C
:1021D0000448FFF7ADFD0448C0F8A842C0F8AC427F
:1021E0001CBD0000000402400080404270B50D4C50
:1021F0000026C4F8A8620C48016821F4400101607F
:10220000016841F4800101600125C4F8AC52284600
:1022100004F52A7404F0B2FC2560012004F0AEFC41
:10222000266070BD00804042000402402DE9F04766
:10223000814618480025016821F4400101600168C9
:102240000160154E2C462F464FF00108C6F8A872C3
:10225000012004F093FCC6F8A8826806D6F82C1278
:10226000000E11B140F0010501E020F00105012050
:1022700004F084FC641CE4B2082CE7D3B9F1000F2D
:1022800004D0FFF7B3FF2846BDE8F087FFF76CFFE7
:10229000F9E70000000402400080404270B50D469E
:1022A000044600F01BF8204600F0B0F800F05EF89D
:1022B000284600F0ABF800F059F800F00FF844F0B1
:1022C000010000F0A3F800F051F80120FFF7AEFF85
:1022D000044600F02BF8204670BD000070B5114890
:1022E000016821F440010160016841F4800101604E
:1022F0000D4C0120C4F8AC02D4F82C1200290FD0E8
:10230000C4F8A80204F03AFC0025C4F8AC52D4F892
:102310002C02002804D1012004F030FCC4F8A8529B
:1023200070BD000000040240008040420D4810B51E
:10233000016821F440010160016841F480010160FD
:10234000094C0020C4F8A802C4F8AC02012004F52E
:102350002A7404F013FC012020606060BDE8104086
:1023600004F00CBC000402400080404270B51248EA
:102370000024016821F440010160016801600F4DF3
:102380000126C5F8AC62304604F0F8FBC5F8A86237
:1023900007E0641CE4B2322C03D9FFF7C7FF00202A
:1023A00070BD012004F0EAFBD5F82C020028F0D122
:1023B000C5F8A802012070BD000402400080404220
:1023C0002DE9F0411D4614460F468046069EFFF754
:1023D00065FF621CFF21C4F1080301FA02F22B44DD
:1023E0005B1ED9400A43C5F108018E40D2B2F1B25A
:1023F000C4F10703D940104040EA01023946404683
:1024000000F034F80120BDE8F08100002DE9F04132
:1024100005461448016821F440010160016841F457
:1024200080010160104E0027C6F8A8723C464FF0AC
:102430000108E809C6F8AC026806050E012004F0A0
:102440009DFBC6F8A882012004F098FBC6F8A8728C
:10245000012004F093FB641CE4B2082CE9D3BDE82E
:10246000F0810000000402400080404270B5154633
:102470000E460446FFF732FF2046FFF7C7FFFFF77F
:1024800075FF3046FFF7C2FFFFF770FF2846FFF7E2
:10249000BDFFFFF76BFFFFF749FF012070BD000094
:1024A000174830EEC00A1749D0ED050A174A91EDDA
:1024B000001A70EE600A144960EE810A91ED001A6C
:1024C00041EE000A90ED041A70EE810A10EE901AA7
:1024D000C0ED040A914203DDDFED0D0AC0ED040AF0
:1024E00010EE901A0B4A914203D9DFED0B0AC0EDB2
:1024F000040A80ED050ABDEEE00A10EE100A7047EE
:1025000038020020AC010020B00100200078824693
:1025100000788246007882C6007882C6174830EE7E
:10252000C00A1749D0ED080A174A91ED001A70EE5B
:10253000600A144960EE810A91ED001A41EE000A2A
:1025400090ED071A70EE810A10EE901AC0ED070A9E
:10255000914203DDDFED0D0AC0ED070A10EE901A7F
:102560000B4A914203D9DFED0B0AC0ED070A80ED5B
:10257000080ABDEEE00A10EE100A7047380200208B
:10258000AC010020B001002000788246007882462D
:10259000007882C6007882C6174830EEC00A174914
:1025A000D0ED0B0A174A91ED001A70EE600A14493B
:1025B00060EE810A91ED001A41EE000A90ED0A1AD0
:1025C00070EE810A10EE901AC0ED0A0A914203DD06
:1025D000DFED0D0AC0ED0A0A10EE901A0B4A914287
:1025E00003D9DFED0B0AC0ED0A0A80ED0B0ABDEE40
:1025F000E00A10EE100A704738020020AC010020FB
:10260000B00100200078824600788246007882C6B9
:10261000007882C6174830EEC00A1749D0ED0E0A7E
:10262000174A91ED001A70EE600A144960EE810AB3
:1026300091ED001A41EE000A90ED0D1A70EE810A3C
:1026400010EE901AC0ED0D0A914203DDDFED0D0A88
:10265000C0ED0D0A10EE901A0B4A914203D9DFED3E
:102660000B0AC0ED0D0A80ED0E0ABDEEE00A10EE79
:10267000100A704738020020AC010020B001002091
:102680000078824600788246007882C6007882C64A
:102690001CB50121102001F041F800218DF8041033
:1026A000032101208DF8051000908DF80700694680
:1026B0000148FFF73DFB1CBD0010024010B5322061
:1026C00004F0E0F802280BD1074906480A680260C6
:1026D00089888180064905480A6802608988818066
:1026E00010BD000000030020060300200C030020A2
:1026F000120300207CB50121084601F00FF80120EB
:102700008DF8040000228DF8062003218DF80510B5
:10271000074D4FF480548DF8070000946946284611
:10272000FFF706FB21462846FFF74EFB7CBD000065
:102730000000024000EE900A41421E4AB8EEE01A44
:1027400000EE901A00B592ED010AF8EEE00A05F0ED
:10275000B8FE00EE900A82ED010A174AB8EEE01AC0
:1027600000EE901A92ED010AF8EEE00A05F0A9FEDB
:1027700000EE900A82ED010A104AB8EEE01A00EE6F
:10278000901A92ED010AF8EEE00A05F09AFE00EECA
:10279000900A82ED010A0A4AB8EEE01A00EE901A99
:1027A00092ED010AF8EEE00A05F08BFE82ED010AD7
:1027B00000BD0000505B0020645B0020785B0020BF
:1027C0008C5B0020BC2801D3012210E0622801D3D9
:1027D00002220CE02A2801D3032208E0142801D3A6
:1027E000042204E00A2801D3052200E006221A216F
:1027F000D020FFF73BBE10B504464FF47A708442F8
:1028000001D9044602E0042C00D20424B0FBF4F009
:10281000401EC2B21921D020FFF728FE6008BDE893
:102820001040FFF7CFBF10B580226B21D020FFF7FB
:102830001DFEC82004F086F900226B21D020FFF78E
:1028400015FE012000F03AF8002000F02EF83220AA
:10285000FFF7D1FF00223821D020FFF707FE00222A
:102860006A21D020FFF702FE00222321D020FFF7AB
:10287000FDFD80223721D020FFF7F8FD7521D02003
:10288000FFF70CFD682801D0012010BD01226B214B
:10289000D020FFF7EBFD00226C21D020FFF7E6FDF2
:1028A0003220FFF7A8FF002010BD08B502230090DA
:1028B00004221C21D020FFF783FD08BD08B50223A8
:1028C000009004221B21D020FFF77AFD08BD0000F4
:1028D00008B504F08DF90D4C4FF47A7500900A217B
:1028E000684606F051F92068A8420ADA401C2060C8
:1028F000606820612089A082D4F80A00E061E08944
:10290000208400F049F800F003F8E8E7F002002026
:1029100070B53C21D020FFF7C1FC04463B21D020FC
:10292000FFF7BCFC04EB00201A4C3E212080D02095
:10293000FFF7B4FC05463D21D020FFF7AFFC05EBC7
:10294000002060804021D020FFF7A8FC05463F21F1
:10295000D020FFF7A3FC05EB002000B2A4F10A0190
:10296000A0800968B1F57A7F12DB04F11803218891
:10297000198062885A8098809B1F1D88491B21807E
:102980005988511A61809988401A00F58040A080CA
:1029900070BD0000FA02002070B54421D020FFF77E
:1029A0007DFC04464321D020FFF778FC04EB002097
:1029B000304C46212080D020FFF770FC0546452191
:1029C000D020FFF76BFC05EB002060804821D02071
:1029D000FFF764FC05464721D020FFF75FFC05EBBD
:1029E000002000B2221FA08011684FF47A76224B9B
:1029F000224DB14203DA01201860287070BDB14247
:102A000026D1002129704FF4967119601C4909687C
:102A1000D9B91D499FED1B0ADFED1C0A81ED000AA3
:102A20001B49C1ED000A1C49DFED1A0AC1ED000A7D
:102A30001B49DFED1A0AC1ED000A1A4981ED000AAF
:102A40001A499FED190A81ED000A40F2E93111603F
:102A5000084B21881233198062885A8098809B1F06
:102A60001D88491B21805988511A61809988401A14
:102A7000A08070BDF402002034000020A4010020DA
:102A80001001002000000000B801002085EB113F7C
:102A9000BC010020C3F5C83FC00100206666A63F08
:102AA000C4010020C8010020CDCCCC3ECC010020C8
:102AB000FEE7704730B50F23C27801780125FAB1DF
:102AC000144A126801F1E02102F4E062C2F5E0620A
:102AD000C2F30722C2F10404D3404278A2408478B2
:102AE0001C401443220181F80024007800F01F01EB
:102AF0008D404009800000F1E020C0F8005130BD59
:102B000001F01F0085404809800000F1E020C0F876
:102B1000805130BD0CED00E00249084302490860D5
:102B2000704700000000FA050CED00E010B4002131
:102B3000084B0A46002003EBC004401CC0B262549C
:102B40008028F8D3491CC9B20829F3D310BC00F07F
:102B5000B9B800001803002010B57F2816D83F2907
:102B600014D80723A3EBD10301F00701C1F1070437
:102B70000121A140064CDBB204EBC000002AC25C7C
:102B8000C9B201D00A4300E08A43C25410BD00001C
:102B9000180300207CB50121082000F0BFFD0126AC
:102BA0008DF8046000244FF4F0408DF8064000904A
:102BB0008DF805408DF8074069464048FFF7B8F8A2
:102BC0000121080700F0B6FD012000F05DFC0020A7
:102BD00000F01CFE002000F057FC394DC5F8B04253
:102BE000642005F52C7503F0ADFF2E600021AE20AA
:102BF00000F02AF90021D52000F026F9002150200C
:102C000000F022F90021A82000F01EF900213F2049
:102C100000F01AF90021D32000F016F9002108462F
:102C200000F012F90021402000F00EF900218D2063
:102C300000F00AF90021142000F006F900212020FC
:102C400000F002F90021022000F0FEF80021A1208E
:102C500000F0FAF80021C02000F0F6F80021DA2098
:102C600000F0F2F80021122000F0EEF8002181209F
:102C700000F0EAF80021EF2000F0E6F80021D9206A
:102C800000F0E2F80021F12000F0DEF80021DB2066
:102C900000F0DAF80021302000F0D6F80021A4205E
:102CA00000F0D2F80021A62000F0CEF80021AF20DD
:102CB00000F0CAF8FFF73AFF7CBD0000000C0240AC
:102CC0000080414270B5104E002505F1B000C0B241
:102CD000002100F0B9F80021084600F0B5F8002105
:102CE000102000F0B1F8002406EBC4000121405D83
:102CF00000F0AAF8641CE4B2802CF5D36D1CEDB290
:102D0000082DE2D370BD0000180300202DE9F04F1C
:102D1000203A98460D468346894602F0FF0A00266F
:102D20002EE0B8F10C0F08D0174901EB0A1000276C
:102D3000845D200607D5099A08E014490AEB4A0089
:102D400001EB8000F3E7099890B10022294658462C
:102D5000FFF702FF6D1C6006EDB2040EA5EB090142
:102D6000414507D10BF101004D4600F0FF0B05E096
:102D70000122EBE77F1CFFB2082FDAD3761CF6B2F4
:102D80004645CED3BDE8F08F42AD0008CEA800087E
:102D90002DE9FF4F81B00027DDF838B01D4692467F
:102DA00080463C464FF001094FEA5B0627E0281BAE
:102DB000401EC1B20A2003F0F1FFBAFBF0F00A2175
:102DC000B0FBF1F201FB120027B9691E8C4201DA57
:102DD00048B101273030C2B206FB0480C0B25B4666
:102DE000CDF8009006E006FB0480C0B25B462022CE
:102DF000CDF800900299FFF789FF641CE4B2AC4261
:102E0000D5D305B0BDE8F08FF8B516460D4604469B
:102E1000012714E07A2C02D900241035EDB23A2DA6
:102E200003D900242546FFF781FE009732780C2352
:102E300029462046FFF76AFF0834E4B2761C307852
:102E40000028E7D1F8BD000030B500230E4A012468
:102E500011B1C2F8AC4201E0C2F8AC320021C2F8B4
:102E6000B832050602D5C2F8B44201E0C2F8B43265
:102E7000C2F8B8424006491C000EC9B20829EED378
:102E8000C2F8AC4230BD0000008041420020044A3C
:102E900001461154401CC0B20928FAD37047000003
:102EA000180700202DE9F84301250746ADF800502A
:102EB0001B4800264670ADF800501A4C80464FF66D
:102EC000FF7924E0BDF80000384202D0C4F8B052C7
:102ED00001E0C4F8B062C4F8A052052003F04EFE31
:102EE000C4F8A062052003F049FEC4F8A052D4F84B
:102EF0003C0230B198F80110BDF80020114388F869
:102F00000110BDF8001009EA4100ADF80000BDF85D
:102F10000000FF28D6D9BDE8F843102003F02EBEEC
:102F2000180700200000424270B5FFF7AFFF00F025
:102F3000F3F80B480B4AB0F803400A4818324480B3
:102F40000020012512F8103000F101005B1E05FA87
:102F500003F12142C0B202D01028F3D3002070BD8B
:102F6000180700203C00002010B5154C0020C4F8C4
:102F7000A802102004F52A7403F000FE0120FFF7D8
:102F800091FF4320FFF78EFF0020FFF78BFF01200A
:102F9000FFF788FF0020FFF785FF0020FFF782FF83
:102FA0000020FFF77FFF0020FFF77CFF0020FFF7E6
:102FB00079FF01202060BDE81040102003F0DEBD45
:102FC0000000424210B5154C0020C4F8A8021020A1
:102FD00004F52A7403F0D2FD0120FFF763FF4320BC
:102FE000FFF760FF0020FFF75DFF0020FFF75AFFAB
:102FF0005A20FFF757FF5A20FFF754FF5A20FFF7D8
:1030000051FF5A20FFF74EFF5A20FFF74BFF0120D8
:103010002060BDE81040102003F0B0BD0000424227
:103020007CB50121102000F079FB4FF40040002412
:1030300000908DF8044003208DF805000C4E022509
:103040008DF8075069463046FEF772FE01218DF873
:1030500004108DF806404FF4A8508DF805500090EC
:103060008DF8071069463046FEF762FE7CBD000011
:103070000010024010B5FFF757FF1949194A1A4BC3
:103080000860D1791960194B117A194C196053797C
:103090002360184B9279184C1A600123174A0428B0
:1030A00001D11078C8B1A068002815D0762913DAAC
:1030B0001078002810D112480068B0F57A7F0BDB39
:1030C00010491370002008700F4908700F490870EC
:1030D0000F4908700F49087010BDA360E6E70000B3
:1030E00034020020180700202402002028020020BB
:1030F0002C020020300200203C000020B4010020FF
:10310000F0020020B6010020B5010020B701002028
:1031100004020020050200202DE9FC4100268DF864
:1031200000600125ADF80450224CC4F8A862224F7B
:103130003878FFF7B7FE7878FFF7B4FE02208DF8F5
:1031400000001E4F4FF6FF782CE0ADF804501DE054
:10315000C4F8A052052003F011FDC4F8A0620520B8
:1031600003F00CFDC4F8A052D4F83C0240B19DF825
:103170000000BDF80410385C08439DF80010785436
:10318000BDF8041008EA4100ADF80400BDF80400E1
:10319000FF28DDD9102003F0F1FC9DF80000401C51
:1031A0008DF800009DF800000928CED3C4F8A8527D
:1031B000BDE8FC81000042423C00002018070020CE
:1031C00010B500F00DF800F00BF800F009F8FFF76B
:1031D000CBFE00F027F8BDE81040FFF7F3BE00007B
:1031E00010B50F4C0020C4F8A802102004F52A7472
:1031F00003F0C4FC0120FFF755FE4220FFF752FE0A
:103200000020FFF74FFE0020FFF74CFE0020FFF7E5
:1032100049FE01202060BDE81040102003F0AEBC44
:103220000000424210B5144C0020C4F8A80201204E
:1032300004F52A74FFF736FE4420FFF733FE002022
:10324000FFF730FE0120FFF72DFE0320FFF72AFED7
:103250000020FFF727FE0020FFF724FE0020FFF7E5
:1032600021FE0020FFF71EFE01202060BDE8104077
:10327000102003F083BC0000000042422DE9F0035F
:103280009FED6B0A6B486FF0130503686A48C3F142
:1032900080010068C0F180026848AA420468C4F155
:1032A000800002DD142A00DA0022A94202DD14297E
:1032B00000DA0021A84202DD142800DA002000EE26
:1032C000902A5F4AB8EEE01AD2ED000A21EE201AE9
:1032D000DFED5C1A02EE101A02EE900A21EE211ABE
:1032E000B8EEC22A584A594DF8EEE22A22EE202AB8
:1032F00082ED001A22EE212A85ED002A9FED543A34
:103300005448554962EE832A62EEA11AC0ED001AB4
:103310000978DFED522A61B1022901D001290ED1CD
:10332000B5EEC01AF1EE10FA03D2F1EE611AC0ED5B
:10333000001A61EEA00AC0EEA21AC0ED001ADFED7D
:10334000480AC1EE201A82EE201AC2ED001A85ED5D
:10335000001ADFED440A642B01DAC82C03DCC82B09
:1033600007DD642C05DAC2ED000AC5ED000AC0EDE8
:10337000000A3D49096849BB3C493E4B3E4CD1F8E7
:1033800000C03B493D4E3E4FDFF8F89091ED003ACA
:10339000D3ED002A94ED002AD6ED001A97ED001A1D
:1033A000D9ED000AACF1050CBCF10C0F36D2DFE808
:1033B0000CF011190E160631092E21291E2633EEA6
:1033C000000A01E033EE400A81ED000A26E032EE09
:1033D000800A01E032EEC00A83ED000A1EE032EE00
:1033E000000A01E032EE400A84ED000A16E031EEF8
:1033F000800A01E031EEC00A86ED000A0EE031EEEF
:10340000400A01E031EE000A87ED000A06E030EEE6
:10341000C00A01E030EE800A89ED000A90ED001A42
:10342000D5ED000A92ED000ABDE8F003FEF716B8EC
:103430000AD7A33B24020020280200202C020020EF
:10344000A80100200000003CE4010020E801002069
:10345000DB0FC93FEC010020A50100200000FA436A
:1034600000007A4400000000100100203402002017
:10347000B8010020BC010020C0010020C4010020D0
:10348000C8010020CC0100200149086270470000FB
:1034900000000E42154870EEC00A154990ED110A61
:1034A00030EE200A80ED110A91ED001A124921EE4A
:1034B000202A9FED101AC2EE011A91ED002A0F4941
:1034C00022EE000A80EE012A31EE820AD0ED121AB5
:1034D00091ED002AC0ED120A70EEE11A61EE821A37
:1034E00081EE812A30EE020A704700003802002087
:1034F000F80000200000C842FC000020000100206D
:10350000154870EEC00A154990ED150A30EE200AF4
:1035100080ED150A91ED001A124921EE202A9FED47
:10352000101AC2EE011A91ED002A0F4922EE000A8C
:1035300080EE012A31EE820AD0ED161A91ED002AB2
:10354000C0ED160A70EEE11A61EE821A81EE812A50
:1035500030EE020A7047000038020020F800002018
:103560000000C842FC00002000010020154870EE59
:10357000C00A154990ED190A30EE200A80ED190AAB
:1035800091ED001A124921EE202A9FED101AC2EE89
:10359000011A91ED002A0F4922EE000A80EE012A5D
:1035A00031EE820AD0ED1A1A91ED002AC0ED1A0A06
:1035B00070EEE11A61EE821A81EE812A30EE020A83
:1035C0007047000038020020F80000200000C842C8
:1035D000FC00002000010020154870EEC00A1549CB
:1035E00090ED1D0A30EE200A80ED1D0A91ED001AC3
:1035F000124921EE202A9FED101AC2EE011A91ED18
:10360000002A0F4922EE000A80EE012A31EE820ADA
:10361000D0ED1E1A91ED002AC0ED1E0A70EEE11ADF
:1036200061EE821A81EE812A30EE020A70470000B4
:1036300038020020F80000200000C842FC000020F2
:1036400000010020154870EEC00A154990ED010AEE
:1036500030EE200A80ED010A91ED001A124921EEA8
:10366000202A9FED101AC2EE011A91ED002A0F498F
:1036700022EE000A80EE012A31EE820AD0ED021A13
:1036800091ED002AC0ED020A70EEE11A61EE821A95
:1036900081EE812A30EE020A70470000B802002055
:1036A000F80000200000C842FC00002000010020BB
:1036B000154870EEC00A154990ED050A30EE200A53
:1036C00080ED050A91ED001A124921EE202A9FEDA6
:1036D000101AC2EE011A91ED002A0F4922EE000ADB
:1036E00080EE012A31EE820AD0ED061A91ED002A11
:1036F000C0ED060A70EEE11A61EE821A81EE812AAF
:1037000030EE020A70470000B8020020F8000020E6
:103710000000C842FC00002000010020044A0029EB
:10372000116801D0014300E081431160704700003F
:1037300030380240044A0029116801D0014300E0FA
:10374000814311607047000040380240044A00295C
:10375000116801D0014300E081431160704700000F
:1037600044380240044A0029116801D0014300E0B6
:1037700081431160704700002438024070B5204B2F
:103780001968204C11F00C0104D06610042903D0F4
:10379000082903D004601BE0066019E0184A121FD4
:1037A0001168C1F38055116801F03F0115B1B6FBF6
:1037B000F1F101E0B4FBF1F114681268C4F388146C
:1037C0006143C2F30142521C5200B1FBF2F10160AD
:1037D00019680F2202EA11110B4A545C0168E1409A
:1037E00041601C68072505EA9424145D21FA04F45D
:1037F00084601B6805EA5333D25CD140C16070BD60
:10380000083802400024F40020010020054900226D
:103810000A700A70012802D0042801D1052008701E
:1038200070470000703802400021022807D00328AA
:103830000BD004280BD005280BD0002070474FF088
:103840008042506A516200B27047044A02E0044A62
:1038500000E0044A1068116000B270472404004080
:1038600024080040240C0040F0B54FF4FA665B4B8E
:10387000771032463946186804F033FE584D186008
:1038800032463946286804F02CFE564C28603246F1
:103890003946206804F025FE3246534E20603946F2
:1038A000306804F01EFE30602A6821681B686FF0E3
:1038B0006304A2F2DC52A0F2DC50A1F2DC51A3F2CC
:1038C000DC53A24202DD642A00DA0022A04202DDBB
:1038D000642800DA0020A14202DD642900DA002118
:1038E000A34202DD642B00DA002300EE101A3F4CE5
:1038F000B8EEC00AD4ED000A30EE800ABDEEC00A70
:1039000010EE101A002900DA00214FF4FA754A432C
:1039100092FBF5F24042484390FBF5F000EE102A8E
:10392000DFED351A324CF8EEC00A00EE100A5842AC
:10393000304DB8EEC01A00EE100A3148C4ED000A4E
:10394000B8EEC00A2F4A85ED001A20EE212ADFEDDD
:103950002B1A82EE210A80ED000A127822B1022A87
:1039600009D0012A07D01BE002EE101AB8EEC22AD5
:1039700020EE020A10E0F5EEC00AF1EE10FA03D2D2
:10398000B1EE400A80ED000AB0EE402A00EE101AB7
:10399000B8EEC00A22EE000A80EE212A80ED002A4D
:1039A0009FED190A194AC0EE801AC1EE000AC4ED53
:1039B000001AC5ED000A517839B19FED150A491E6C
:1039C00084ED000A80ED000A517090ED001A94ED2C
:1039D000000ABDE8F040FDF741BD0000880000206E
:1039E0008C0000209000002094000020A8010020FE
:1039F000E4010020E8010020DB0FC93F0000FA438A
:103A0000EC010020A501002000007A4438020020CB
:103A10000000000010B551EC100B2DED068BB0EE40
:103A2000439AF0EE629AB0EE42AAF0EE618AB0EEEE
:103A3000418A06F0B7F8BDEECA0A154910EE102A01
:103A4000BDEEE90A086081ED018A10EE103AC1ED81
:103A5000058AC1E9022381ED049A9900514300EEE1
:103A6000101A0C49B8EEC00A81ED000A9FED0A0A4F
:103A70000A4929EE000A81ED000A0949086009484F
:103A800080ED008A0848C0ED008ABDEC068B10BDB1
:103A9000B05B0020F0010020DB0F4940F401002062
:103AA000F8010020FC0100200002002010B5294C84
:103AB0004FF42B700A2120600920FEF707FB2168D4
:103AC000254C90FBF1F0C0B22070022801D90220F1
:103AD0002070DFED221A10F0FF0004D001280DD075
:103AE000022817D124E09FED1E3AF2EE0A2AB3EE27
:103AF0000E2A9FED1C1A9FED1C0B09E09FED1C3A4E
:103B0000F2EE0A2AB3EE0E2A9FED1A1A9FED1A0B57
:103B1000FFF780FF20781A4A1A49082398B1012834
:103B200014D0022803D1042010600720086010BDC3
:103B30009FED153AF2EE0A2AB3EE0E2AB0EE611AA4
:103B40009FED120BE4E70E201360EFE70B201360EC
:103B5000ECE70000E0010020A501002000000000CB
:103B60009A99993D7B14AE3D022B8716D9CEB73F6B
:103B7000B81E853DE926313E000000C09DEFC73FDD
:103B8000D8010020DC010020C520303D000000E00D
:103B90007A14CE3F9FED081ADFED060A20EE011AD7
:103BA0009FED060A01EE600ABDEEC00A10EE100A93
:103BB000704700000AD7233F00007A440080BB44CE
:103BC0001C49884201D2002070471B49884201D21B
:103BD000082070471949884201D2102070471849BF
:103BE000884201D2182070471649884201D220200D
:103BF00070471549884201D22820704713498842EE
:103C000001D2302070471249884201D238207047D3
:103C10001049884201D2402070470F49884201D2A2
:103C2000482070470D49884201D2502070475820E3
:103C300070470000004000080080000800C0000835
:103C40000000010800000208000004080000060847
:103C50000000080800000A0800000C0800000E0818
:103C600010B5002304E030F8024B21F813405B1C30
:103C70009342F8D310BD00002DE9F0470926904685
:103C80000F460446B0F1006F33D3E00731D1FDF7A2
:103C9000DFFF0020FDF754FF1748254604EB4808D6
:103CA00084421DD24FF6FF7945450ED228884845FB
:103CB00009D02846FFF784FF0221FDF74FFF064693
:103CC0000928F1D00EE0AD1CEEE7092E08D009E07E
:103CD00039882046FDF79EFF092803D1A41CBF1C8C
:103CE0004445F5D30120FDF72BFFBDE8F047FDF774
:103CF00089BFBDE8F08700000000FF1F244841692C
:103D0000A9B925499FED230A81ED000A234981EDD8
:103D1000000A234981ED000A224981ED000A224967
:103D200081ED000A214981ED000A0121416120480D
:103D3000204A0068B2F90010092827D00B2822D0A9
:103D40001D4A0C28B2F900101DD00A281ED01B4AAB
:103D50000528B2F9001016D0072817D0184A0628EF
:103D6000B2F900100FD0082810D0164A0D28B2F969
:103D7000001008D00F2809D0134A0E28B2F90010FD
:103D800004D0102801D1491E11807047491CFBE75F
:103D90003C00002000000000B8010020BC01002011
:103DA000C0010020C4010020C8010020CC01002077
:103DB00034020020040100200E0100200601002032
:103DC000080100200A0100200C01002070B51748EE
:103DD0000025184C016816486429006805DAC828CF
:103DE00003DDE268521CE26000E0E560C82905DD01
:103DF000642803DA2069401C206100E02561E36843
:103E00004FF4FA7201200C49934202DD60600860B1
:103E1000E5602369934207DD0A68012A04D16060E6
:103E20000D60FDF76DFF256170BD000024020020CC
:103E30002C0200203C000020100100200CB50022C4
:103E4000274900920192086840F4803008604FF4DE
:103E5000A043086800F4003001900098401C0090D6
:103E6000019810B900989842F3D10868800334D5BE
:103E7000012001901A484030026842F080520260EE
:103E80001848026842F4404202601548083002684F
:103E90000260026842F400420260026842F4A052EA
:103EA0000260031F104A1A600A6842F080720A60BA
:103EB0000A689201FCD50D4940F205720A6001685A
:103EC00021F003010160016841F002010160016815
:103ED000C1F381010229FAD10CBD01920CBD000091
:103EE000003802400070004008544007003C024087
:103EF0002DE9F04F0CAC214D94E8800909AC204E1F
:103F000094E8001644F29F14002803DA2C60204441
:103F1000306002E03460201A28601A48002903DA71
:103F200044632144816302E08463611A416316485B
:103F3000002A03DA84631119416302E04463A11A81
:103F40008163002B03DA04641919C16302E0C463BE
:103F5000E11A01640D49C1F80090091DC1F800A0E3
:103F6000081DC0F800C0001D07600948C0F80080A7
:103F7000011DC1F800B0BDE8F08F000034440140DD
:103F80003448014000400140000001403404014039
:103F90003418004000B5B0EE412AF0EE602AB0EED1
:103FA000401A9FED490A4948D0ED001ADFED480A52
:103FB000B5EEC01AF1EE10FA02DD71EE801A0EE0D5
:103FC000B5EEC01AF1EE10FA02D271EEC01A06E098
:103FD000B5EEC01AF1EE10FA03D161EEA01AC0EDF1
:103FE000001A3A49F5EEC02AD1ED011AF1EE10FAA5
:103FF00002DD71EE801A0EE0F5EEC02AF1EE10FA45
:1040000002D271EEC01A06E0F5EEC02AF1EE10FA07
:1040100003D161EEA01AC0ED011A2C49B5EEC02AF9
:10402000D1ED021AF1EE10FA02DD31EE800A0EE057
:10403000B5EEC02AF1EE10FA02D231EEC00A06E067
:10404000B5EEC02AF1EE10FA03D121EEA00A80ED00
:10405000020AB0EE410A02F0B7FDF0EE400AB0EEFF
:10406000410A02F0B1FDF1EE401AB0EE601A90ED97
:10407000000AF0EE610A04F024FA80ED000AB0EEC6
:10408000620A02F0A1FDB0EE401AB0EE620A02F040
:104090009BFDF1EE400A90ED010A04F012FA80ED6A
:1040A000010AB0EE420A02F08FFDB0EE401AB0EE07
:1040B000420A02F089FDF1EE400A90ED020A04F096
:1040C00000FA80ED020A00BD0AD7233C445B0020C1
:1040D0006666663F4FF0E0210428086903D020F0AF
:1040E00004000861704740F00400FAE710B505F0DD
:1040F000F1FA012803D0BDE8104004F0DFBF10BD85
:10410000124810B5016841F470010160104801685F
:1041100041F0010101600E4A00210832116002687D
:104120000C4B1A400260031D0B4A1A60026822F40D
:104130008022026006480C300160FFF77FFE0349D1
:104140004FF000608039086010BD000088ED00E08D
:1041500000380240FFFFF6FE1030002470B5048CDA
:1041600024F001040484058B048C4FF6FF7606EAE4
:104170000313134325F0F3052B4324F00A020A43EB
:1041800042F001010383018470BDF0B5048C24F07A
:1041900010040484078B068C4FF6FF7404EA0115A3
:1041A00027F4734704EA0331394304EA02220A433D
:1041B00026F0A001294341F0100102830184F0BDE3
:1041C0002DE9F041884607468AB001210220FFF719
:1041D000A5FA01214804FFF7B9FA1F4E032208216E
:1041E0003046FDF7E1FD02208DF804000024C001F7
:1041F0008DF80640012500908DF8075003208DF8BA
:10420000050069463046FDF793FD144EADF8088071
:104210000397ADF81040ADF80A4002A9304600F00F
:10422000CDFD6020ADF81400ADF81650ADF820407B
:1042300005A9304600F076FC0821304600F0A8FCC5
:104240000121304600F0B6FB0121304600F0C2FBF0
:104250000AB0BDE8F08100000004024000440140C3
:104260002DE9F041884607468AB001210220FFF778
:1042700055FA01218804FFF769FA214E032209212A
:104280003046FDF791FD02208DF804000024000265
:104290008DF80640012500908DF8075003208DF819
:1042A000050069463046FDF743FD164EADF808801F
:1042B0000397ADF81040ADF80A4002A9304600F06F
:1042C0007DFD6020ADF81400ADF81650ADF820402B
:1042D00005A9304600F026FC0821304600F058FCC5
:1042E0000121304600F080FB0121304600F062FBE6
:1042F0000121304600F06EFB0AB0BDE8F0810000FD
:1043000000040240004801402DE9F041884606467D
:104310008AB001214020FFF70DFA01210220FFF7AA
:10432000FDF902208DF818004FF44040059003205D
:104330008DF8190000242A4F8DF81A4001258DF8B8
:104340001B5005A93846FDF7F3FC09220E2138461B
:10435000FDF72AFD09220F213846FDF725FD0896B5
:10436000204EADF81C80ADF82440ADF81E4007A9E2
:10437000304600F023FD6020ADF80000ADF802509B
:104380000294ADF80C40ADF810406946304600F09C
:10439000C9FB6946304600F001FC0821304600F0B8
:1043A000F7FB0821304600F043FC0121304600F0C5
:1043B0001BFB0121304600F00DFB0B480949B0F909
:1043C0000000343100F2DC5008600848091DB0F9E3
:1043D000000000F2DC5008600AB0BDE8F081000087
:1043E00000040240001800400C0100200E010020D3
:1043F0002DE9F0418846074601218AB00846FFF7BB
:10440000A5F901211020FFF789F9354E0122092174
:104410003046FDF7C9FC01220B213046FDF7C4FCF4
:1044200001220D213046FDF7BFFC01220E2130464E
:10443000FDF7BAFC4FF4D440059002208DF8180027
:1044400003208DF8190000248DF81A4001258DF8FD
:104450001B5005A93046FDF76BFC224EADF81C80C1
:104460000897ADF82450ADF81E4007A9304600F07B
:10447000A5FC6020ADF80000ADF80250ADF80C408E
:104480006946304600F04EFB6946304600F086FB38
:104490006946304600F0D6FB6946304600F020FC05
:1044A0000121304600F0A0FA0821304600F070FBF0
:1044B0000821304600F0BCFB0821304600F00AFC21
:1044C0000821304600F046FC0121304600F072FA27
:1044D0000121304600F07EFA0AB0BDE8F08100000C
:1044E00000100240000001404FF08040018A018A24
:1044F00021F001010182704703480188018821F001
:104500000101018070470000100400400348018849
:10451000018821F00101018070470000100800406F
:1045200003480188018821F00101018070470000E3
:10453000100C004003480188018821F0010101802E
:1045400070470000101800402DE9F0478E48002405
:104550008169B1F5C86F13DD8C490A7882B98C4A3C
:104560001268B2F57A7F0BDB01220A7089490C7060
:1045700089490C7089490C7089490C7089490C7003
:1045800080460078884D000642F20F764FF4FA77A5
:104590002DD40221284600F053FA40B302212846C8
:1045A00000F015FA98F80000400628463DD500F0C6
:1045B0003FFA80B2A8F80600B8F8041042468842D4
:1045C00001D2566300E05463401A516B08445061B5
:1045D000516A401A00D54042B84200DD516150692D
:1045E000506288F800400021284600F0CBFA98F885
:1045F000010000063AD40421284600F021FAA8B3AD
:104600000421284600F0E3F998F801004006284606
:104610004AD500F00FFA80B2A8F80A00B8F80810DE
:10462000424688420ED296630DE000F001FA014640
:10463000A8F8041098F8001041F0400188F8001024
:104640000221D1E79463401A916B08449061916A0A
:10465000401A00D54042B84200DD916190699062F5
:1046600088F801400021284600F0D8FA98F80200A6
:1046700000063AD40821284600F0E2F9A8B3082140
:10468000284600F0A4F998F80200400628464BD5C9
:1046900000F0D2F980B2A8F80E00B8F80C1042462B
:1046A00088420ED2D6630DE000F0C4F90146A8F8A6
:1046B000081098F8011041F0400188F8011002211B
:1046C000D1E7D463401AD16B0844D061D16A401A53
:1046D00000D54042B84200DDD161D069D06288F88F
:1046E00002400021284600F0EBFA98F80300C1468A
:1046F000000647D41021284600F0A2F9002841D036
:104700001021A846284600F062F999F803004D46AA
:1047100040062BD5404600F091F980B26882298A84
:1047200088420ED22E640DE000F086F90146A8F80A
:104730000C1098F8021041F0400188F80210022194
:10474000D0E72C64401A296C08442862296B401A6F
:1047500000D54042B84200DD2962286A2863EC7027
:1047600000214046BDE8F04700F0EABA4446404622
:1047700000F064F92882E878022140F04000E870F7
:104780002046EFE7BDE8F08774000020B601002066
:10479000F0020020B5010020B4010020B701002084
:1047A0000402002005020020000401402DE9F04130
:1047B000884606468AB001210220FEF7C7FF012184
:1047C0000420FEF7ABFF02208DF818004FF4707044
:1047D000059003208DF8190000243E4F8DF81A40F3
:1047E00001258DF81B5005A93846FDF7A1FA0322D3
:1047F00006213846FDF7D8FA032207213846FDF78F
:10480000D3FA032208213846FDF7CEFA0322092104
:104810003846FDF7C9FA08962F4EADF81C80ADF862
:104820002440ADF81E4007A9304600F0C7FA6020CA
:10483000ADF80000ADF802500294ADF80C40ADF8B0
:1048400010406946304600F06DF96946304600F088
:10485000A5F96946304600F0F5F96946304600F0A2
:104860003FFA0821304600F093F90821304600F065
:10487000DFF90821304600F02DFA0821304600F01B
:1048800069FA0121304600F0AFF80121304600F00E
:10489000A1F812481049B0F90000343100F2DC50A0
:1048A00008600F48091DB0F9000000F2DC500860F4
:1048B0000C48091DB0F9000000F2DC5008600A48FD
:1048C000091DB0F9000000F2DC5008600AB0BDE834
:1048D000F0810000000802400004014004010020B3
:1048E00006010020080100200A010020024801887A
:1048F00021F0010101807047100401402DE9F043CF
:104900008946804601218BB00804FEF71FFF012174
:104910001020FEF703FF254F032205213846FDF73F
:1049200043FA032206213846FDF73EFA02208DF8AD
:10493000180003208DF81900002460268DF81A4015
:10494000012505968DF81B5005A93846FDF7F0F9AD
:10495000174FADF81C90CDF82080ADF82440ADF88D
:104960001E4007A9384600F029FAADF80060ADF8FE
:104970000250ADF80C406946384600F0D3F869465D
:10498000384600F00BF90821384600F001F90821FB
:10499000384600F04DF90121384600F00BF80121AE
:1049A000384600F017F80BB0BDE8F0830010024065
:1049B000004001400029018802D041F0800101E05F
:1049C00021F0800101807047C94301827047C943CB
:1049D000018270470029018802D041F0010101E005
:1049E00021F0010101807047002930F8441F02D0F6
:1049F00041F4004101E0C1F30E010180704770B540
:104A00000589048B068C25F007050D434FF6FC4104
:104A10000C4040F201110C434FF6FF7101EA031103
:104A200026F022061143314305810483018470BDC1
:104A3000406B7047806B7047C06B7047006C70476D
:104A400002460020138A92890B4202EA010202D038
:104A5000002A00D0012070472DE9F0410C460E8855
:104A60004988A2882389054616B3042E28D0082E2B
:104A70002E8C4FF6FF702BD026F480562E84AF8BF1
:104A80002E8C00EA022200EA013127F473473A43F0
:104A900000EA0330104326F420420A4342F48051D6
:104AA000A8832984E1882846BDE8F04100F07AB95E
:104AB000FFF754FBE1882846BDE8F04100F056B905
:104AC000FFF763FBE1882846BDE8F04100F056B9E6
:104AD00026F480762E84AF8B2E8C00EA012100EA2A
:104AE0000310104327F0F307384326F420620A43EB
:104AF00042F48071A8832984E1882846BDE8F0410A
:104B000000F048B900210180418001228280C180EB
:104B100001817047002A828901D00A4300E08A435C
:104B20008281704730B5028C22F001020284028C2F
:104B30008388048B22F0020224F073050C882C4336
:104B40008D8915434A882A430C4DA84202D00C4D4A
:104B5000A8420DD122F00805CA8923F440732A43E4
:104B600022F004058A882A430D8A1D434B8A2B4371
:104B70008380048389684163028430BD0000014062
:104B800000040140028C22F002020A4302847047B2
:104B9000028B22F008020A430283704770B5028C30
:104BA00022F010020284028C8388048B0D8824F486
:104BB000E6464FF6FF7404EA052535438E8922F058
:104BC000200204EA061616434A8804EA0212324317
:104BD000104EB04202D0104EB04215D122F08006E5
:104BE000CA8923F4406304EA0212324322F04006E9
:104BF0008A8804EA021232430E8A04EA86061E43B9
:104C00004B8A04EA83033343838005838968816385
:104C1000028470BD0000014000040140028C4FF688
:104C2000FF7322F0200203EA01111143018470474F
:104C3000028B4FF6FF7322F4006203EA0121114355
:104C40000183704770B5028C22F480720284028C5A
:104C50008388848B0D8824F0730425438E894FF656
:104C6000FF7422F4007204EA062616434A8804EA16
:104C700002223243104EB04202D0104EB04215D143
:104C800022F40066CA8923F4405304EA0222324324
:104C900022F480668A8804EA022232430E8A04EAF9
:104CA00006161E434B8A04EA03133343838085832D
:104CB0008968C163028470BD0000014000040140A6
:104CC000028C4FF6FF7322F4007203EA01211143B4
:104CD00001847047828B22F008020A438283704766
:104CE00070B5028C22F480520284058C8288838BFA
:104CF0000C8823F4E6464FF6FF7303EA042434439A
:104D000025F400568D8903EA053535434E8803EABC
:104D100006362E43084DA84202D0084DA84205D1C0
:104D200022F480450A8A03EA82122A43828084831D
:104D300089680164068470BD0000014000040140E0
:104D4000028C4FF6FF7322F4005203EA0131114343
:104D500001847047828B4FF6FF7322F4006203EAEE
:104D6000012111438183704741627047028B22F019
:104D70000C020283028B0A4302837047028B22F4E7
:104D800040620283028B4FF6FF7303EA01210A435C
:104D900002837047828B22F00C028283828B0A434B
:104DA00082837047828B22F440628283828B4FF62B
:104DB000FF7303EA01210A438283704730B50288FA
:104DC000164C174DA0420DD0A8420BD0B0F1804F29
:104DD00008D0144B984205D0134B984202D0134B85
:104DE000984203D122F070034A881A43104B98422C
:104DF00006D0104B984203D022F440730A891A431C
:104E000002804A68C2620A880285A04201D0A84294
:104E100001D1897A01860121818230BD00000140E3
:104E2000000401400004004000080040000C004065
:104E300000100040001400404FF0FF31416000219D
:104E40000180018141808172704700000A2809DBDE
:104E50000C48D0F80C0228B10B480078012801D08A
:104E600000207047094A012000211160084A1160A2
:104E7000084A51639163084A916391631164D16355
:104E80007047000000804142A401002034440140EA
:104E90003448014000400140000001402DE9F04746
:104EA000744D00244FF0010840F22551284600F0CF
:104EB00019FD00287ED0284600F0A2FD6E49C0B240
:104EC0000968B1F57A7F75DB6D4F6C4D0026397A34
:104ED000A5F143097B2868547A7A09F8020000D0CA
:104EE00011B1491C397200E03E72AA2800D012B1FB
:104EF000521C7A7200E07E72387A0B282ED13E72F4
:104F0000A87A7D282AD100210920FCF789FA697A3C
:104F1000884223D15B48604906705B4806705B4855
:104F200006705B4806705B480670012008705B489D
:104F300006702979E87800F069FD594880ED000A8B
:104F4000A979687900F062FD564880ED000A297A57
:104F5000E87900F05BFD544880ED000A787A10286B
:104F60007CD17E7299F80F004946BB2876D100208B
:104F70000A5C401C54400E28FADB887BA04202D019
:104F8000B8F1000F6AD188784A78484B00EB0220CC
:104F900000B200EE100A0879CA78B8EEC03A00EB09
:104FA000022000B200EE100A414A8879F8EEC02AC9
:104FB0004C7900E052E000EB042000B200EE100A51
:104FC0000C7ACD79B8EEC02A04EB052424B200EEA9
:104FD000104A8C7A4E7AF8EEC01A04EB062424B2FA
:104FE00000EE104A0C7BCF7AB8EEC01A04EB07240F
:104FF00024B200EE104A2F482F4DF8EEC00A9FED64
:10500000310A2E4E2E4C23EE003A62EE802A22EE1A
:10501000002A83ED003AC2ED002A61EE801A80ED8D
:10502000002A21EE001A20EE800AC5ED001A86ED56
:10503000001A84ED000A99F80D3023489FED230AE9
:105040002349244A022B0CD0F0EE000AC0ED000ADE
:1050500081ED000AB7EE000A82ED000A0020BDE8EB
:10506000F087DFED1D0AC0ED000A81ED000AB6EE03
:10507000000AF1E7004800403C020020C40700207D
:10508000B8000020B4010020B6010020B5010020C6
:10509000B701002004020020050200203802002091
:1050A000E4010020E8010020EC010020B80100200C
:1050B000BC010020C0010020C4010020C801002064
:1050C000CC0100206F12833AF8000020000000009D
:1050D000FC00002000010020CDCCCC3E2DE9F041A9
:1050E000854E40F22551304600F0FCFB002879D077
:1050F00000240125304600F083FC8049C0B20968D5
:10510000B1F57A7F6EDB7F4E7D4A0023377802F15E
:105110000B017B28D05596F801C001F80C0000D097
:1051200017B17F1C377000E03370AA2802D0BCF1A1
:10513000000F04D00CF1010C86F801C000E0737080
:1051400030780B2851D13370907A7D284DD10020D2
:10515000175C401C7C400928FADB507AA04201D140
:10516000002500E0EDBB684807785FB901270770AC
:1051700066480370664803706648037066480370AB
:1051800066480370664803701079D77892F805C0B6
:1051900000EB072000B200EE100A9079614F00EB9F
:1051A0000C20F8EEC01A00B200EE100A107AD27984
:1051B000B8EEC01A00EB022000B200EE100ADFF8D1
:1051C00068C15A48F8EEC00A9FED590A81EE802A5C
:1051D000C1EE001A87ED002A80EE801ACCED001A8D
:1051E00001E002E04FE080ED001A7078102877D1DE
:1051F0007370C87BBB2873D100200A5C401C5440EC
:105200000E28FADB887BA04200D0E5BB88784A787C
:10521000CB7800EB022000B200EE100A08794C793E
:1052200000EB0320B8EEC03A00B200EE100A887915
:10523000CD7900EB0420F8EEC02A00B200EE100A8F
:10524000087A4E7A00EB0520B8EEC02A00B200EED4
:10525000100A887ACF7A00EB0620F8EEC01A00B266
:1052600000EE100A087B334A00EB0720B8EEC01AA4
:1052700000B200EE100A304B304C314D314EF8EE9A
:10528000C00A314800E02BE09FED300A23EE003ADF
:1052900062EE802A22EE002A82ED003A61EE801A48
:1052A000C3ED002A21EE001A84ED002A20EE800AC8
:1052B000C5ED001A86ED001A80ED000A4B7B2449EB
:1052C0009FED240A2448254A022B0CD0F0EE000A58
:1052D000C1ED000A80ED000AB7EE000A82ED000A77
:1052E0000020BDE8F081DFED1E0AC1ED000A80ED6F
:1052F000000AB6EE000AF1E7001001403C0200206F
:1053000024070020B800002004020020050200202D
:10531000B5010020B4010020B6010020B701002033
:1053200038020020E4010020E8010020EC01002008
:1053300000007A44B8010020BC010020C001002018
:10534000C4010020C8010020CC0100206F12833A64
:10535000F800002000000000FC00002000010020F8
:10536000CDCCCC3E00B5054B0022985C03F032FA60
:10537000521CD2B2182AF8D300BD000092070020B8
:105380002DE9F04140F225512DED048B904800F0BD
:10539000A9FA00287ED08E48001D00888D49096832
:1053A000B1F57A7F76DB012100258B4C412810D1A5
:1053B0006279412A0DD1894A137853B9884B1D70FF
:1053C000884B1D701170884A1570884A1570884A7C
:1053D0001570C2B2874BDFF820C2DFF82082884FF9
:1053E000884E62714B2808D0492808D04A2806D038
:1053F0003F782FB1012F16D00EE0397017E03D70C5
:10540000A0F14107072F02D87F1C1F7004E0082875
:1054100001DC1A7000E01D709FED7B0A582815D042
:10542000592818D01DE0432806D0472809D08CF809
:10543000005088F80050EEE78CF8005088F8001013
:105440000FE08CF8001088F800500AE0D6ED000A52
:1054500030EE800A03E0D6ED000A30EEC00A86ED99
:10546000000A6A4F3368BB4202DA9FED690A04E022
:10547000684FBB4203DD9FED680A86ED000A674B6B
:105480009FED679A7B2809D07D280DD0A078012850
:1054900005D000E096E0022808D08AE0A170E0780C
:1054A0001A54401CE07084E00220A070D878502884
:1054B00006D05878232873D0E078207198462AE0E7
:1054C000584801706CE0E178081A04F0B1FD41EC35
:1054D000110B9FED550B00F0DBFA2779B0EE408AF7
:1054E00008EB0700F0EE608A10F8010C303804F089
:1054F0009FFD53EC182B04F001FE41EC180BE06803
:1055000005F0F2F853EC182B04F07EFB04F04AFB94
:105510007F1EE060277120790428D4D298F801001A
:10552000DFED430A9FED430A3038092838D2DFE81F
:1055300000F0050B11171D23292E320094ED031ADC
:105540003D4811EE200A29E094ED031A3B4811EE84
:10555000200A23E094ED031A394811EE200A1DE0D9
:1055600094ED031A374811EE200A17E094ED031A60
:10557000354811EE200A11E094ED031A334811EE7C
:10558000200A0BE094ED030A86ED000A08E094ED92
:10559000030A2F4802E094ED030A2E4880ED000A2A
:1055A000A570E570257184ED039A32211B48FAF746
:1055B000D4FF96ED000AB5EEC00AF1EE10FA01D262
:1055C00086ED009A0020BDEC048BBDE8F081000060
:1055D00000440040F0020020B8000020B501002087
:1055E000B4010020B6010020B70100200402002011
:1055F00005020020D001002020020020210200200E
:1056000022020020A80100200000C84200004842F9
:105610000000484200009644000096443F070020E6
:1056200000000000230200200000000000002440D1
:105630000AD7233CC3F5C83FB8010020BC010020B5
:10564000C0010020C4010020C8010020CC010020BE
:10565000AC010020B00100202DE9F047744D00247A
:105660004FF0010840F22551284600F03BF9002890
:105670007DD0284600F0C4F96E49C0B20968B1F582
:105680007A7F74DB6D4F6C4D0026B979A5F1530913
:105690007B286854FA7909F8020000D011B1491C3E
:1056A000B97100E0BE71AA2800D012B1521CFA7183
:1056B00000E0FE71B8790B282DD1BE71A87A7D2843
:1056C00029D100210920FBF7ABFE697A884222D15B
:1056D0005B4806705B4806705B4806705B48067066
:1056E0005B4806705B4806705B4806702979E8786D
:1056F00000F08CF9594880ED000AA979687900F02A
:1057000085F9574880ED000A297AE87900F07EF99A
:10571000544880ED000AF87910287CD1FE7199F880
:105720000F004946BB2876D100200A5C401C54403B
:105730000E28FADB887BA04202D0B8F1000F6AD1B4
:1057400088784A78484B00EB022000B200EE100A3D
:105750000879CA78B8EEC03A00EB022000B200EE39
:10576000100A424A8879F8EEC02A4C7900E052E0EB
:1057700000EB042000B200EE100A087ACD79B8EEF2
:10578000C02A00EB052000B200EE100A887A4E7A9B
:10579000F8EEC01A00EB062000B200EE100A087BFB
:1057A000CF7AB8EEC01A00EB072000B200EE100A64
:1057B0002F4C304DF8EEC00A9FED310A2E4E2F4887
:1057C00023EE003A62EE802A22EE002A83ED003AB0
:1057D000C2ED002A61EE801A21EE001A84ED002A43
:1057E00020EE800AC5ED001A86ED001A80ED000A51
:1057F00099F80D3023489FED240A244A2449022BAE
:105800000CD0F0EE000AC0ED000A82ED000AB7EEFF
:10581000000A81ED000A0020BDE8F087DFED1D0AD7
:10582000C0ED000A82ED000AB6EE000AF1E70000C2
:10583000004800403C020020C4070020B8000020BF
:10584000B4010020B6010020B5010020B7010020FE
:10585000040200200502002038020020E40100209C
:10586000E8010020EC010020B8010020BC0100206C
:10587000C0010020C4010020C8010020CC0100208C
:105880006F12833AF800002000000000FC000020A6
:1058900000010020CDCCCC3E00B5054B0022985C29
:1058A00002F0A0FF521CD2B2182AF8D300BD0000AB
:1058B0009207002000B5054B0022985C02F09CFF87
:1058C000521CD2B2182AF8D300BD00009207002063
:1058D0000029818902D041F4005101E021F40051F6
:1058E0008181704770B501F01F0501260024C1F3C6
:1058F000421306FA05F2012B0FD0022B0FD0838A38
:105900004FEA11210088134206FA01F600EA060068
:1059100001D000B10124204670BD8389F0E7038ADD
:10592000EEE710B5C1F3421301F01F040121A140BD
:10593000012B07D0022B07D01430002A026805D0B3
:105940000A4304E00C30F8E71030F6E78A430260BF
:1059500010BD00007FB50446008A0D46C98820F4BA
:10596000405001432182A08941F20C618843A988FB
:105970002A8911436A8902431143A181A08A20F434
:105980004071A8890843A0826846FDF7F7FE1A48CF
:10599000844202D01948844201D1039800E0029861
:1059A000A189090400EBC00101EB0010296801D5B1
:1059B000490000E08900B0FBF1F06422B0FBF2F195
:1059C00009010B096FF018056B4300EB8300A389F5
:1059D0001D044FF0320306D503EBC000B0FBF2F01C
:1059E00000F0070005E003EB0010B0FBF2F000F060
:1059F0000F00084320817FBD0010014000140140CA
:105A00008088C0F308007047FEE7000070B501EB26
:105A1000002004B24FF47A7594FBF5F005FB1040BA
:105A20002DED028B04F004FB9FED0B1B53EC112BAF
:105A300004F064FB41EC180B94FBF5F004F0F8FA69
:105A400053EC182B04F0E0F804F0ACF8BDEC028B3A
:105A500000EE100A70BD0000FCA9F1D24D62503F6B
:105A600003B401984100009850EAC12018BF0420F7
:105A70004A0D18BF40F0010040F2FF72B2EB515FD7
:105A800008BF40F00200012808BF052002B070479F
:105A90002DE9F04D2DED040B2DED0E8B96B0DDE9CB
:105AA0002550279CDDF890A025F0004624F0004802
:105AB000BAF1000F14BF0121002101EB4502FC499E
:105AC00053184A1093422AD3002814BF01230023FD
:105AD00003EB44030B44F7498B4220D358EA0001FF
