:020000040800F2
:10000000805E00203103000829190008B71100089C
:1000100043180008390900085D2B000800000000A3
:10002000000000000000000000000000790200084D
:100030004D0C000800000000CD020008711E0008F1
:100040004B0300084B0300084B0300084B03000858
:100050004B0300084B0300084B0300084B03000848
:100060004B0300084B0300084B0300084B03000838
:100070004B0300084B0300084B0300084B03000828
:100080004B0300084B0300084B0300084B03000818
:100090003D0900084B0300084B0300084B03000810
:1000A0004B0300084B0300084B0300084B030008F8
:1000B0004B030008451F0008591F00084B030008A8
:1000C0004B0300084B0300084B0300084B030008D8
:1000D0004B0300085529000891290008C52900088C
:1000E0004B0300084B0300084B0300088D20000859
:1000F000052300084B030008A12000084B0300085B
:100100004B0300084B0300084B0300084B03000897
:100110004B030008F92800084B0300085D20000885
:100120004B0300084B0300084B0300084B03000877
:100130004B0300084B0300084B0300084B03000867
:100140004B0300084B0300084B0300084B03000857
:100150004B0300084B0300084B0300084B03000847
:100160004B0300084B0300084B0300084B03000837
:100170004B0300084B0300084B0300084B03000827
:100180004B0300084B03000800F002F800F064F88D
:100190000AA090E8000C82448344AAF10107DA45E2
:1001A00001D100F059F8AFF2090EBAE80F0013F0D0
:1001B000010F18BFFB1A43F001031847C85D000088
:1001C000E85D00000A444FF0000C10F8013B13F00A
:1001D000070408BF10F8014B1D1108BF10F8015BA0
:1001E000641E05D010F8016B641E01F8016BF9D193
:1001F00013F0080F1EBF10F8014BAD1C0C1B09D1EA
:100200006D1E58BF01F801CBFAD505E014F8016B5B
:1002100001F8016B6D1EF9D59142D6D370470000ED
:100220000023002400250026103A28BF78C1FBD8FF
:10023000520728BF30C148BF0B607047642900F0E7
:100240000381732900F06A82002070471FB505F012
:100250008FFE1FBD10B510BD00F0A0FA1146FFF7CC
:10026000F5FF03F0ABF800F0BEFA03B4FFF7F2FFBE
:1002700003BC02F001FD00002A4B19680868B0E8D1
:10028000F04F80F30988BFF36F8F4FF0000080F3C9
:10029000118870470000000006480068006880F37D
:1002A000088862B661B6BFF34F8FBFF36F8F00DF70
:1002B00000BF00BF08ED00E0DFF80C00016841F46A
:1002C00070010160704700BF88ED00E0EFF3098026
:1002D000BFF36F8F134B1A681EF0100F08BF20ED8D
:1002E000108A20E9F04F106008B44FF0500080F3FE
:1002F0001188BFF34F8FBFF36F8F04F0F5FA4FF003
:10030000000080F3118808BC19680868B0E8F04F55
:100310001EF0100F08BFB0EC108A80F30988BFF3FD
:100320006F8F70472C010020EFF3058070470000AD
:100330000948804709480047FEE7FEE7FEE7FEE779
:10034000FEE7FEE7FEE7FEE7FEE7FEE704480549B5
:10035000054A064B70470000851E00088901000809
:1003600080580020805E0020805A0020805A0020A3
:10037000704700000FB4044910B503AA029800F0BA
:10038000D1F910BC5DF814FB180100202DE9F041F3
:100390000E460446002020622046E168884730B3BC
:1003A000252805D0D4E901219047206A401CF2E7B6
:1003B000E168204600278847050018D0A5F14100D4
:1003C000192802D820354FF40067324629462046C6
:1003D0002760FFF733FF40B1012804D0F61D26F057
:1003E00007060836D8E7361DD6E72846DAE7206A3A
:1003F000BDE8F08170B50C460546012A05D0287885
:10040000800600D5EA69002302E0012305E05B1CB9
:10041000934202D2E05C0028F9D1A869E618C01A1C
:10042000A861286A184428622846AFF3008004E0D7
:10043000D5E9012114F8010B9047B442F8D32846BE
:10044000AFF3008070BD00002DE9F04106460024A6
:1004500010687529314616A510D0AFF3008000282A
:1004600002DA404213A507E031688A0701D512A5D8
:1004700002E0490704D511A5012401E0AFF3008093
:1004800000210A2206F1240709E0B0FBF2FCB0FBD0
:10049000F2F302FB1C00303078541846491C002847
:1004A000F3D123462A463046BDE8F04100F0B2B809
:1004B000000000002D0000002B00000020000000C4
:1004C000032A40F2308010F0030C00F0158011F880
:1004D000013BBCF1020F624498BF11F801CB00F858
:1004E000013B38BF11F8013BA2F1040298BF00F8AC
:1004F00001CB38BF00F8013B11F0030300F0258069
:10050000083AC0F0088051F8043B083A51F804CB8F
:10051000A0E80810F5E7121D5CBF51F8043B40F855
:10052000043BAFF30080D20724BF11F8013B11F860
:1005300001CB48BF11F8012B24BF00F8013B00F8A4
:1005400001CB48BF00F8012B704710B5203AC0F02E
:100550000B80B1E81850203AA0E81850B1E81850C4
:10056000A0E81850BFF4F5AF5FEA027C24BFB1E801
:100570001850A0E8185044BF18C918C0BDE8104072
:100580005FEA827C24BF51F8043B40F8043B08BF7B
:100590007047D20728BF31F8023B48BF11F8012B42
:1005A00028BF20F8023B48BF00F8012B704702F03B
:1005B000FF0343EA032242EA024200F0C7B84FF0C9
:1005C000000200B5134694469646203922BFA0E8A3
:1005D0000C50A0E80C50B1F12001BFF4F7AF0907AF
:1005E00028BFA0E80C5048BF0CC05DF804EB8900A0
:1005F00028BF40F8042B08BF704748BF20F8022BE3
:1006000011F0804F18BF00F8012B704770477047FA
:10061000704770472DE9F0470D46994692460446CB
:1006200000F124080168880604D5E06921F0100172
:10063000216000E00120A84201DD471B00E0002707
:10064000A1697A1902EB0900081AA0612078C00696
:1006500002D42046AFF30080002608E0D4E901214F
:100660001AF806009047206A401C761C20624E450E
:10067000F4DB2078C0060AD52046AFF3008006E000
:10068000D4E9012130209047206A401C2062381EA6
:10069000A7F10107F4DC07E0D4E9012118F805000F
:1006A0009047206A401C2062281EA5F10105F3DC5A
:1006B0002046AFF300802078000602D50220BDE876
:1006C000F0870120FBE7000001694A1C02610878FD
:1006D000704700B58FB0CDE9013100210591054982
:1006E0007944CDE9031011466846FFF74FFE0FB07D
:1006F00000BD0000E5FFFFFF10B5436913B1AFF384
:10070000008001E0FFF776FE012010BD127800F1B5
:1007100024010A7000224A700122EDE711684FF0AF
:10072000FF32E9E7074B70B50D467B44FFF7D1FF79
:100730000446284600F02AF810B14FF0FF3070BD93
:10074000204670BD872700004FF000020429C0F04A
:10075000128010F0030C3FF434AFCCF1040CBCF168
:10076000020F18BF00F8012BA8BF20F8022BA1EB45
:100770000C01FFF726BF5FEAC17C24BF00F8012B04
:1007800000F8012B48BF00F8012B7047007B00F0F8
:100790008000704700487047205800207546FFF7DA
:1007A000F9FFAE4605006946534620F0070085462E
:1007B00018B020B5FFF7CAFDBDE820404FF0000695
:1007C0004FF000074FF000084FF0000B21F0070139
:1007D000AC46ACE8C009ACE8C009ACE8C009ACE87C
:1007E000C0098D46704710B50446AFF3008020461F
:1007F000BDE81040FFF739BD7CB50121402001F074
:1008000047F901208DF8040000208DF80600032030
:100810008DF8050002208402064D8DF80700694618
:100820002846009400F0F0FB2146284600F038FCF2
:100830007CBD00000018024008B502F0B1FD3A4C42
:100840003A4D3B4E3B4F44F23C1800900A2168461B
:1008500003F078FE00F028FCD4ED020A94ED000AC3
:1008600000F010FE00EE100AB8EEC00A84ED010A96
:10087000D5ED020A95ED000A00F042FE00EE100AE6
:10088000B8EEC00A85ED010AD6ED020A96ED000A1F
:1008900000F074FE00EE100AB8EEC00A86ED010A00
:1008A000D7ED020A97ED000A00F0A6FE00EE100A4E
:1008B0004046B8EEC00A87ED010A00F053FF94ED00
:1008C000010ABDEEC00A10EE103A10EE102A94EDA7
:1008D000020ABDEEC00A10EE101A94ED000ABDEE39
:1008E000C00A10EE100A00F06FF997ED010ABDEE94
:1008F000C00A10EE103A96ED010AB1EE400ABDEEC4
:10090000C00A10EE102A95ED010AB1EE400ABDEEC4
:10091000C00A10EE101A94ED010ABDEEC00A10EEE6
:10092000100A01F03DFA91E7A8570020BC570020BB
:10093000D0570020E4570020FEE7000000B588B043
:1009400002A907A8CDE9000106AB05AA04A9002069
:1009500000F060F80498A0F58071813941D12249F6
:1009600001200870214900200870214908702149A0
:1009700008702149087021490870214908709DF8C4
:1009800009009DF8081000EB012000B200EE100AEB
:100990001D48F8EEC00A9FED1B0A80EE801A80ED1C
:1009A000001A9DF80B009DF80A1000EB012000B220
:1009B00000EE900A1548F8EEE00A80EE801A80ED0D
:1009C000001A9DF80D009DF80C1000EB012000B2FC
:1009D00000EE900A0E48F8EEE00A80EE801A80EDF4
:1009E000001A08B000BD0000AF010020AC010020DB
:1009F000AE010020AD010020DC010020DD0100205F
:100A00007802002000007A44BC010020C0010020D0
:100A1000C4010020F0B5224CDDE9057504EB00149B
:100A2000D4F8B06516F004061670D4F8B02532D0AC
:100A3000D2080A60D4F8B01501F002011970D4F898
:100A4000B41501F00F013970D4F8B8152970D4F835
:100A5000B815090A6970D4F8B815090CA970D4F84A
:100A6000B815090EE970D4F8BC152971D4F8BC1575
:100A7000090A6971D4F8BC15090CA971D4F8BC1520
:100A8000090EE97148B1012804D10648016841F016
:100A900020010160F0BD520DCBE70248001FF5E7D1
:100AA00000600040106400400029016802D041F05D
:100AB000010101E021F001010160704701460020C1
:100AC0000968C90700D0012070470B0607D54369A4
:100AD00012B143F0800301E023F0800343618029D9
:100AE00008D0002A026801F01E0101D00A4300E08C
:100AF0008A4302607047000030B50368124ACC6830
:100B000013400A682243D1E905452C432243CC69AE
:100B100022430C6A22434C6A22438C6A22434C6B68
:100B200022438C6B22431A430260426922F007037E
:100B3000D1E90B2422431A4342610A6942604A68A0
:100B400082608968C16030BD3F801CF010B5012112
:100B500090B0480500F09CFF184A1046FFF7AEFF22
:100B60000028FAD14FF00060009015480190154818
:100B7000029000202121CDE903014FF48061CDE9ED
:100B800005018910CDE908010902CDE90A10079095
:100B90000321CDE90C100E90694614461046FFF76C
:100BA000ABFF074801224021001F01F03AFF01215D
:100BB0002046FFF779FF10B010BD0000286002400A
:100BC00004440040D4030020F0B51E4C070A002561
:100BD00020716771070CA771000EE0712172080A7D
:100BE0006072080CA072080EE0722273100A607323
:100BF000100CA073100EE0732374180A6074180CA4
:100C0000A074180EE07410201423E0702E4600200B
:100C1000215C401C2944CDB27119C0B2CEB29842B9
:100C2000F6D3E5545B1C0020E65407495B1C06E044
:100C30000A885206FCD5225C8A80401CC0B29842C9
:100C4000F6D3F0BDC3000020001001407047000043
:100C5000214800B50078B0EE0C2A00283BD11F4B8C
:100C60001F48B1EE400A83ED020AF1EE600AC0EDC2
:100C7000020A1C49F1EE410A1B4AC1ED020AF1EEDB
:100C8000610AF8EE0C1AC2ED020AB0EE421AF0EE5A
:100C9000610A03F075F983ED020A90ED020AB0EEE5
:100CA000421AF0EE610A03F06BF980ED020A91ED51
:100CB000020AB0EE421AF0EE610A03F061F981ED2A
:100CC000020A92ED020AB0EE421AF0EE610A03F057
:100CD00057F982ED020A00BDA0010020A8570020AC
:100CE000BC570020D0570020E45700207CB50121DC
:100CF000102000F0CDFE002403258DF804408DF86F
:100D000006408DF80550012600958DF8076069466C
:100D1000144800F079F90121022000F0B9FE8DF8A5
:100D200004404FF47C708DF8064000908DF805501B
:100D30008DF8076069460C4800F066F90121202013
:100D400000F0A6FE8DF8044040F2F7708DF80640E2
:100D500000908DF805508DF807606946034800F053
:100D600053F97CBD00100240000402400014024010
:100D700030B5012185B0084600F0AEFE01211020FB
:100D800000F086FE204D01220921284600F078F966
:100D900001220B21284600F073F94FF42060022154
:100DA00003908DF8101003208DF8110000248DF8A9
:100DB00012408DF8131003A9284600F025F9134DB1
:100DC000284601F0C1FA684601F08CFD4FF6FF702D
:100DD000ADF800400190ADF80840ADF8024069461A
:100DE000284601F041FD02231A460321284601F05E
:100DF00053FB0021284601F00DFD0121284601F09A
:100E000099FA05B030BD000000100240000001401A
:100E100030B585B00121022000F046FE01210846D0
:100E200000F036FE1F4D02220621284600F028F968
:100E300002220721284600F023F9C0200221039056
:100E40008DF8101003208DF8110000248DF8124049
:100E50008DF8131003A9284600F0D6F8124D284645
:100E600001F072FA684601F03DFD4FF6FF70ADF8F3
:100E700000400190ADF80840ADF8024069462846B0
:100E800001F0F2FC02231A460321284601F004FB7C
:100E90000021284601F0BEFC0121284601F04AFA53
:100EA00005B030BD000002400004004030B589B0FC
:100EB0000121042000F0F8FD0121082000F0E8FDE8
:100EC0004FF44050039003208DF8110002208DF85C
:100ED000100001208DF81200224C8DF8130003A998
:100EE000204600F091F802220C21204600F0C8F8BC
:100EF00002220D21204600F0C3F8684601F0F2FC02
:100F000000244FF6FF70184DADF800400190ADF889
:100F10000840ADF802406946284601F0A5FC0023D0
:100F20001A460321284601F0B7FA05A801F037FB5D
:100F3000ADF81C4005A9284601F0DBFA012128463E
:100F400001F0F2F901221146284601F030FB0021A0
:100F5000284601F05FFC0121284601F0EBF909B0B9
:100F600030BD0000000C02400008004030B585B0E4
:100F70000121022000F0B0FD0121042000F088FDD5
:100F80001F4D03220621284600F07AF8032207218C
:100F9000284600F075F8C020022103908DF810104B
:100FA00003208DF8110000248DF812408DF81310E5
:100FB00003A9284600F028F8124D284601F0C4F98C
:100FC000684601F08FFC4FF6FF70ADF800400190CD
:100FD000ADF80840ADF802406946284601F044FCEF
:100FE00002231A460321284601F056FA002128461A
:100FF00001F010FC0121284601F09CF905B030BD3C
:101000000008024000040140F0B5002201274FF023
:10101000030C0B6807FA02F52B40AB422CD1066893
:1010200053000CFA03F4A64306600E79D0F800E0F2
:101030009E4046EA0E0606600E79012E01D0022E71
:1010400012D18668A64386604E79D0F808E09E40AB
:1010500046EA0E0686604668AE43466045688E796D
:101060009640B6B235434560C568A543C560CC79A6
:101070009C40C3681C43C460521C102AC9D3F0BDF5
:101080004B07DB0E9A40C90810B500EB8100016ADE
:101090000F249C40A1430162016A1143016210BD0B
:1010A000418370470183704710B501202DED048BFB
:1010B00000F072FD334C2060032000F06DFD606095
:1010C000042000F069FDA060082000F065FD2E49B5
:1010D000E060097821B1012902D0022922D10FE074
:1010E00094ED000AA168F8EEC09A94ED010A494215
:1010F0004042B8EEC09A00EE101AF8EEC08A0DE039
:1011000094ED000A6168F8EEC09A494200EE101AA8
:10111000B8EEC09A94ED020AF8EEC08A00EE100A0A
:10112000B8EEC08A9FED191A194829EE810AD0ED50
:10113000000A184860EE201A90ED000A164881EE69
:10114000802A69EE011A61EEA01A80ED002A81EE74
:10115000802A68EE811A114828EE011A61EEA01A61
:1011600061EE200A80EE801A80ED002A0C4881EEA4
:10117000802A80ED002A0B4880ED001ABDEC048B1C
:1011800010BD0000F8570020A00100200000C84258
:10119000CC010020C8010020A8570020BC57002027
:1011A000D0570020E457002010B5FFF79FFDBDE8A1
:1011B000104000F0F7BBFEE770B50E4C0025C4F8F8
:1011C000A0520D48016821F440210160016841F4FA
:1011D000802101600948C0F8A452022004F5287457
:1011E00001F04EFE01202060022001F049FE256042
:1011F00070BD000000004042000802400000414273
:101200007CB50121042000F043FC0121084600F0D8
:101210003FFC01248DF8044000264FF400708DF847
:101220000660032500908DF805508DF8074069464B
:101230000B48FFF7E9FE8DF8044020028DF80660A8
:1012400000908DF805508DF8074069460548FFF776
:10125000DBFE0548C0F8A0420448C0F8A4427CBDAB
:1012600000080240000002400000404200004142ED
:1012700070B50E4C0026C4F8A0620D48016821F438
:1012800040210160016841F4802101600948012585
:10129000C0F8A452022004F5287401F0F1FD256085
:1012A000022001F0EDFD266070BD0000000040420C
:1012B00000080240000041422DE9F04782461748ED
:1012C0000024016821F44021016001680160144E8E
:1012D000DFF85090254627464FF00108C6F8A07267
:1012E000022001F0CDFDC6F8A0826006040ED9F8F8
:1012F000240208B1641CE4B2012001F0C1FD6D1CA0
:10130000EDB2082DEAD3BAF1000F04D0FFF754FF75
:101310002046BDE8F087FFF7ABFFF9E70008024081
:1013200000004042000041422DE9F04705461548C3
:10133000016821F440210160016841F480210160CD
:10134000114E0027C6F8A072DFF840803C464FF0EF
:101350000109E909C8F8A4126806050E022001F087
:101360008FFDC6F8A092022001F08AFDC6F8A07297
:10137000022001F085FD641CE4B2082CE9D3BDE82D
:10138000F087000000080240000040420000414297
:1013900070B50F48016821F440210160016841F4F3
:1013A000802101600B4E0120C6F8A4020A4DC5F849
:1013B000A002042005F5287506F5297601F060FDE8
:1013C00000243460042001F05BFD2C6070BD00003F
:1013D00000080240000041420000404270B50F4842
:1013E000016821F440210160016841F4802101601D
:1013F0000B4D0020C5F8A0020A4CC4F8A40204203A
:1014000004F5297405F5287501F03AFD01202860DE
:101410002060BDE87040042001F032BD00080240A9
:1014200000004042000041422DE9F04112480024F2
:10143000016821F440210160016801600F4D01271E
:10144000C5F8A472384601F01BFD0D4EC6F8A07217
:10145000012001F015FD08E0641CE4B2FA2C04D967
:10146000FFF7BCFF0120BDE8F081D5F82402002879
:10147000F2D1C6F8A002F6E700080240000041429F
:1014800000004042174830EEC00A1749D0ED040A68
:10149000174A91ED001A70EE600A144960EE810A55
:1014A00091ED001A41EE000A90ED031A70EE810AE8
:1014B00010EE901AC0ED030A914203DDDFED0D0A34
:1014C000C0ED030A10EE901A0B4A914203D9DFEDEA
:1014D0000B0AC0ED030A80ED040ABDEEE00A10EE2F
:1014E000100A7047E0010020A4010020A80100209C
:1014F0000078824600788246007882C6007882C6EC
:10150000174830EEC00A1749D0ED070A174A91ED87
:10151000001A70EE600A144960EE810A91ED001A1B
:1015200041EE000A90ED061A70EE810A10EE901A54
:10153000C0ED060A914203DDDFED0D0AC0ED060A9B
:1015400010EE901A0B4A914203D9DFED0B0AC0ED61
:10155000060A80ED070ABDEEE00A10EE100A704799
:10156000E0010020A4010020A801002000788246AC
:1015700000788246007882C6007882C6174830EE2E
:10158000C00A1749D0ED0A0A174A91ED001A70EE09
:10159000600A144960EE810A91ED001A41EE000ADA
:1015A00090ED091A70EE810A10EE901AC0ED090A4A
:1015B000914203DDDFED0D0AC0ED090A10EE901A2D
:1015C0000B4A914203D9DFED0B0AC0ED090A80ED09
:1015D0000A0ABDEEE00A10EE100A7047E001002092
:1015E000A4010020A80100200078824600788246ED
:1015F000007882C6007882C6174830EEC00A1749C4
:10160000D0ED0D0A174A91ED001A70EE600A1449E8
:1016100060EE810A91ED001A41EE000A90ED0C1A7D
:1016200070EE810A10EE901AC0ED0C0A914203DDB3
:10163000DFED0D0AC0ED0C0A10EE901A0B4A914234
:1016400003D9DFED0B0AC0ED0C0A80ED0D0ABDEEEB
:10165000E00A10EE100A7047E0010020A40100200B
:10166000A80100200078824600788246007882C671
:10167000007882C610B5962001F000FB02460021DA
:10168000022002F095FB4FF4FA74204601F0DCFBD7
:101690000C2001F0F3FA02460021012002F088FB41
:1016A000204601F0D1FB272001F0E8FA0246002194
:1016B000032002F07DFB204601F0C6FB9B2001F0D9
:1016C000DDFA02460021052002F072FB204601F0FF
:1016D000BBFB822001F0D2FA02460021062002F074
:1016E00067FB204601F0B0FB642001F0C7FA024618
:1016F0000021042002F05CFB204601F0A5FB3F2006
:1017000001F0BCFA02460021072002F051FB2046FE
:1017100001F09AFB872001F0B1FA02460021BDE8F2
:1017200010400F2002F044BB1CB50121102000F036
:10173000AFF91820009001208DF8040000218DF8E9
:10174000061003218DF80510054C8DF80700694639
:101750002046FFF759FC18212046FFF7A3FC1CBDCB
:101760000010024000EE900A41421E4AB8EEE01A14
:1017700000EE901A00B592ED010AF8EEE00A02F0D0
:10178000FFFB00EE900A82ED010A174AB8EEE01A5C
:1017900000EE901A92ED010AF8EEE00A02F0F0FB7A
:1017A00000EE900A82ED010A104AB8EEE01A00EE4F
:1017B000901A92ED010AF8EEE00A02F0E1FB00EE69
:1017C000900A82ED010A0A4AB8EEE01A00EE901A79
:1017D00092ED010AF8EEE00A02F0D2FB82ED010A76
:1017E00000BD0000A8570020BC570020D0570020A3
:1017F000E457002010B5002144F29F1000F0B6FB22
:1018000000F020F8094C0021204600F0FBFF0021E9
:10181000204600F0F9FF0021204600F0F7FF2046A7
:10182000BDE81040002100F0F3BF0000000C0040B4
:1018300008B501F0B5FD00900A21684602F082FE6D
:10184000FAE7FEE77CB50121202000F021F9012410
:101850008DF8044003254FF440408DF805500026D4
:1018600000908DF806608DF8074069462648FFF71E
:10187000CBFB2648C0F8B842C0F8BC42012140204A
:1018800000F006F98DF804408DF805508DF80660DB
:1018900000958DF8074069461D48FFF7B5FB1D48C8
:1018A000C0F88042C0F884420121042000F0F0F822
:1018B0008DF8044030208DF8055000908DF80660BA
:1018C0008DF8074069461448FFF79EFB1348C0F89F
:1018D0009042C0F894420121102000F0D9F88DF810
:1018E0000440E8018DF8055000908DF806608DF8F1
:1018F000074069460A48FFF787FB0A48C0F89C4240
:10190000C0F8A0427CBD00000014024000804242AA
:10191000001802400000434200080240000041421B
:1019200000100240000042427047000030B50F2313
:10193000C27801780125FAB1144A126801F1E02158
:1019400002F4E062C2F5E062C2F30722C2F10404CD
:10195000D3404278A24084781C401443220181F88D
:101960000024007800F01F018D404009800000F144
:10197000E020C0F8005130BD01F01F00854048094B
:10198000800000F1E020C0F8805130BD0CED00E097
:101990000249084302490860704700000000FA0548
:1019A0000CED00E07CB50121022000F071F800246C
:1019B00003258DF804408DF806408DF8055001266A
:1019C00000958DF8076069461348FFF71DFB01215C
:1019D000084600F05DF88DF8044030208DF8064090
:1019E00000908DF805508DF8076069460B48FFF7A9
:1019F0000BFB0121042000F04BF88DF804400F2070
:101A00008DF8064000908DF805508DF80760694606
:101A10000348FFF7F9FA7CBD0004024000000240D1
:101A20000008024010B50446FFF7B2FC8020FFF723
:101A30007BFCFFF7F9FC2046FFF776FCFFF7F4FC90
:101A4000FFF7A6FC8120FFF76FFCFFF7EDFC0020FD
:101A5000FFF732FC0446FFF7C1FC204610BD70B50D
:101A60000D460446FFF794FC8020FFF75DFCFFF76E
:101A7000DBFC2046FFF758FCFFF7D6FC2846FFF7B3
:101A800053FCFFF7D1FCBDE87040FFF7A7BC000096
:101A9000044A0029116801D0014300E0814311602C
:101AA0007047000030380240044A0029116801D014
:101AB000014300E08143116070470000403802405C
:101AC000044A0029116801D0014300E081431160FC
:101AD0007047000020380240044A0029116801D0F4
:101AE000014300E081431160704700004438024028
:101AF000044A0029116801D0014300E081431160CC
:101B0000704700002438024070B5204B1968204C03
:101B100011F00C0104D06610042903D0082903D069
:101B200004601BE0066019E0184A121F1168C1F337
:101B30008055116801F03F0115B1B6FBF1F101E0EC
:101B4000B4FBF1F114681268C4F388146143C2F362
:101B50000142521C5200B1FBF2F1016019680F22E0
:101B600002EA11110B4A545C0168E14041601C68B3
:101B7000072505EA9424145D21FA04F484601B68A7
:101B800005EA5333D25CD140C16070BD08380240D1
:101B90000024F4001C0100200021012807D00328A4
:101BA0000AD004280AD008280AD000207047074A23
:101BB000506A516200B27047054A02E0054A00E0EF
:101BC000054A1068116000B2704700000000014033
:101BD00024040040240800402404014010B551ECC6
:101BE000100B2DED068BB0EE439AF0EE629AB0EE3C
:101BF00042AAF0EE618AB0EE418A03F0A5FCBDEE88
:101C0000CA0A154910EE102ABDEEE90A086081EDF6
:101C1000018A10EE103AC1ED058AC1E9022381ED77
:101C2000049A9900514300EE101A0C49B8EEC00A0C
:101C300081ED000A9FED0A0A0A4929EE000A81EDAA
:101C4000000A09490860094880ED008A0848C0ED8B
:101C5000008ABDEC068B10BD08580020C80100208A
:101C6000DB0F4940CC010020D0010020D40100202E
:101C7000D801002010B514494FF42B70134C0860A4
:101C8000002020709FED123AF2EE0A2AB3EE0E2ADF
:101C9000DFED101A9FED101A9FED100BFFF79EFF5E
:101CA00020781049104A082340B1012809D00228A1
:101CB00003D1042008600720106010BD0E200B60C7
:101CC000FAE70B200B60F7E7B8010020A001002025
:101CD0009A99993D00000000B81E853D85EB51B8EA
:101CE0001E85BB3FB0010020B40100200CB50022CE
:101CF000274900920192086840F4803008604FF450
:101D0000A043086800F4003001900098401C009047
:101D1000019810B900989842F3D10868800334D52F
:101D2000012001901A484030026842F0805202605F
:101D30001848026842F440420260154808300268C0
:101D40000260026842F400420260026842F4A0525B
:101D50000260031F104A1A600A6842F080720A602B
:101D60000A689201FCD50D4940F205720A600168CB
:101D700021F003010160016841F002010160016886
:101D8000C1F381010229FAD10CBD01920CBD000002
:101D9000003802400070004008544007003C0240F8
:101DA0002DE9F0478846274900240125DFF898905F
:101DB0001E461746002805DAC1F89052C1F8944231
:101DC000414204E0C1F89042C1F8945201464846AD
:101DD00000F018FD1D49B8F1000006DAC1F8B8524C
:101DE000C1F8BC42C8F1000104E0C1F8B842C1F832
:101DF000BC520146484600F007FD1548002F05DAA1
:101E0000C0F88052C0F88442794204E0C0F88042B1
:101E1000C0F884523946484600F0F8FC0D48002EC0
:101E200005DAC0F89C52C0F8A042714204E0C0F844
:101E30009C42C0F8A05231464846BDE8F04700F049
:101E4000E7BC000000004142000C0040008042421C
:101E500000004342000042424FF0E021042808699C
:101E600003D020F004000861704740F00400FAE756
:101E700010B503F00DF9012803D0BDE8104002F0C1
:101E8000FBBD10BD124810B5016841F4700101603E
:101E90001048016841F0010101600E4A002108323A
:101EA000116002680C4B1A400260031D0B4A1A6055
:101EB000026822F48022026006480C300160FFF7BD
:101EC00015FF03494FF000608039086010BD000025
:101ED00088ED00E000380240FFFFF6FE10300024DD
:101EE00070B5048C24F001040484058B048C4FF637
:101EF000FF7606EA0313134325F0F3052B4324F082
:101F00000A020A4342F001010383018470BDF0B567
:101F1000048C24F010040484078B068C4FF6FF74A5
:101F200004EA011527F4734704EA0331394304EA4C
:101F300002220A4326F0A001294341F01001028346
:101F40000184F0BD03480188018821F0010101806E
:101F5000704700001004004003480188018821F008
:101F60000101018070470000100800402DE9F04198
:101F70000D4680468AB001210820FFF795FD01211A
:101F80000846FFF785FD0F20059002208DF8180008
:101F900000248DF81A4003208DF819002D4F0126DA
:101FA0008DF81B6005A93846FFF72EF802220021A4
:101FB0003846FFF765F8022201213846FFF760F83E
:101FC000022211463846FFF75BF802220321384609
:101FD000FFF756F8ADF81C501F4DADF81E40CDF878
:101FE0002080ADF8244007A9284600F03DFC602081
:101FF000ADF80000ADF80260ADF80C406946284627
:1020000000F0DEFA0821284600F010FB6946284659
:1020100000F012FB0821284600F058FB69462846CC
:1020200000F05EFB0821284600F0A2FB6946284626
:1020300000F0A4FB0821284600F0DAFB0121284625
:1020400000F068F90121284600F074F90AB0BDE8F3
:10205000F081000000000240000C004010B5094C67
:102060000121204600F039FA002809D0064920460F
:102070008A89521C8A81BDE81040012100F057B9BD
:1020800010BD0000001400405C00002003480188DF
:10209000018821F001010180704700001018004004
:1020A0002DE9F0478E4800248169B1F5C86F13DD32
:1020B0008C490A7882B98C4A1268B2F57A7F0BDBB8
:1020C00001220A7089490C7089490C7089490C7089
:1020D00089490C7089490C7080460078884D00064B
:1020E00042F20F764FF4FA772DD40221284600F001
:1020F000F4F940B30221284600F019F998F80000DD
:10210000400628463DD500F0E0F980B2A8F8060068
:10211000B8F804104246884201D2566300E0546386
:10212000401A516B08445061516A401A00D5404230
:10213000B84200DD51615069506288F800400021CA
:10214000284600F06DFA98F8010000063AD4042100
:10215000284600F0C2F9A8B30421284600F0E7F8A9
:1021600098F80100400628464AD500F0B0F980B240
:10217000A8F80A00B8F80810424688420ED29663C2
:102180000DE000F0A2F90146A8F8041098F800103C
:1021900041F0400188F800100221D1E79463401A11
:1021A000916B08449061916A401A00D54042B84250
:1021B00000DD91619069906288F801400021284615
:1021C00000F07AFA98F8020000063AD4082128466E
:1021D00000F083F9A8B30821284600F0A8F898F881
:1021E0000200400628464BD500F073F980B2A8F8EB
:1021F0000E00B8F80C10424688420ED2D6630DE0AD
:1022000000F065F90146A8F8081098F8011041F0AF
:10221000400188F801100221D1E7D463401AD16B44
:102220000844D061D16A401A00D54042B84200DD6E
:10223000D161D069D06288F802400021284600F0C0
:102240008DFA98F80300C146000647D410212846AD
:1022500000F043F9002841D01021A846284600F09C
:1022600066F899F803004D4640062BD5404600F02D
:1022700032F980B26882298A88420ED22E640DE03B
:1022800000F027F90146A8F80C1098F8021041F068
:10229000400188F802100221D0E72C64401A296C12
:1022A00008442862296B401A00D54042B84200DD3C
:1022B0002962286A2863EC7000214046BDE8F04797
:1022C00000F08CBA4446404600F005F92882E878D0
:1022D000022140F04000E8702046EFE7BDE8F087BB
:1022E00018000020AE0100207C020020AD0100207B
:1022F000AC010020AF010020DC010020DD01002046
:10230000000401400248018821F00101018070476A
:10231000100401400029018802D041F0800101E051
:1023200021F0800101807047C94301827047C94391
:10233000018270470029018802D041F0010101E0CB
:1023400021F0010101807047464910B5884206D14D
:1023500001210846FFF7CCFB002101205BE0B0F132
:10236000804F09D0404988420DD101210220FFF75A
:10237000A7FB0021022070E001210846FFF7A0FB27
:102380000021012069E03949884206D10121042059
:10239000FFF796FB002104205FE03549884206D113
:1023A00001210820FFF78CFB0021082055E031496E
:1023B000884206D101211020FFF782FB0021102066
:1023C0004BE02D49884206D101212020FFF778FB00
:1023D0000021202041E02949884206D10121022024
:1023E000FFF786FB0021022015E02549884202D133
:1023F00001210C040AE02349884202D101214C0446
:1024000004E0214988420AD101218C042046FFF7CB
:102410006FFB00212046BDE81040FFF769BB1B4958
:10242000884206D101214020FFF74AFB00214020CD
:1024300013E01749884206D101218020FFF740FBB5
:102440000021802009E0134988420AD18415012126
:102450002046FFF735FB00212046BDE81040FFF77E
:102460002FBB10BD000001400004004000080040E8
:10247000000C004000100040001400400004014027
:102480000040014000440140004801400018004065
:10249000001C00400020004070B50589048B068CAC
:1024A00025F007050D434FF6FC410C4040F20111A9
:1024B0000C434FF6FF7101EA031126F02206114387
:1024C000314305810483018470BD406B7047806B8C
:1024D0007047C06B7047006C704702460020138A3B
:1024E00092890B4202EA010202D0002A00D00120A8
:1024F00070472DE9F0410C460E884988A28823894F
:10250000054616B3042E28D0082E2E8C4FF6FF70E9
:102510002BD026F480562E84AF8B2E8C00EA02221C
:1025200000EA013127F473473A4300EA03301043CD
:1025300026F420420A4342F48051A8832984E1888A
:102540002846BDE8F04100F083B9FFF7C9FCE188F7
:102550002846BDE8F04100F05FB9FFF7D8FCE188FC
:102560002846BDE8F04100F05FB926F480762E845D
:10257000AF8B2E8C00EA012100EA0310104327F0F4
:10258000F307384326F420620A4342F48071A8839B
:102590002984E1882846BDE8F04100F051B90021C6
:1025A0000180418001228280C18001817047002A20
:1025B000828901D00A4300E08A438281704700008B
:1025C00030B5028C22F001020284028C8388048BD5
:1025D00022F0020224F073050C882C438D891543E8
:1025E0004A882A430C4DA84202D00C4DA8420DD176
:1025F00022F00805CA8923F440732A4322F0040517
:102600008A882A430D8A1D434B8A2B438380048387
:1026100089684163028430BD00000140000401402C
:10262000028C22F002020A4302847047028B22F0DD
:1026300008020A430283704770B5028C22F0100230
:102640000284028C8388048B0D8824F4E6464FF6BE
:10265000FF7404EA052535438E8922F0200204EA3E
:10266000061616434A8804EA02123243104EB0425C
:1026700002D0104EB04215D122F08006CA8923F450
:10268000406304EA0212324322F040068A8804EAD8
:10269000021232430E8A04EA86061E434B8A04EA7B
:1026A000830333438380058389688163028470BD1B
:1026B0000000014000040140028C4FF6FF7322F03D
:1026C000200203EA0111114301847047028B4FF687
:1026D000FF7322F4006203EA012111430183704772
:1026E00070B5028C22F480720284028C8388848B01
:1026F0000D8824F0730425438E894FF6FF7422F46D
:10270000007204EA062616434A8804EA022232438B
:10271000104EB04202D0104EB04215D122F40066E5
:10272000CA8923F4405304EA0222324322F4806629
:102730008A8804EA022232430E8A04EA06161E43FD
:102740004B8A04EA03133343838085838968C1631A
:10275000028470BD0000014000040140028C4FF66D
:10276000FF7322F4007203EA0121114301847047D0
:10277000828B22F008020A438283704770B5028C74
:1027800022F480520284058C8288838B0C8823F487
:10279000E6464FF6FF7303EA0424344325F400565B
:1027A0008D8903EA053535434E8803EA06362E4304
:1027B000084DA84202D0084DA84205D122F4804518
:1027C0000A8A03EA82122A43828084838968016428
:1027D000068470BD0000014000040140028C4FF6E9
:1027E000FF7322F4005203EA013111430184704760
:1027F000828B4FF6FF7322F4006203EA012111433A
:10280000818370474163704781637047C16370473C
:102810000164704741627047028B22F00C02028310
:10282000028B0A4302837047028B22F440620283C8
:10283000028B4FF6FF7303EA01210A4302837047BC
:10284000828B22F00C028283828B0A438283704740
:10285000828B22F440628283828B4FF6FF7303EAFD
:1028600001210A438283704730B50288164C174D08
:10287000A0420DD0A8420BD0B0F1804F08D0144B2D
:10288000984205D0134B984202D0134B984203D183
:1028900022F070034A881A43104B984206D0104B1E
:1028A000984203D022F440730A891A4302804A688E
:1028B000C2620A880285A04201D0A84201D1897A69
:1028C00001860121818230BD0000014000040140E9
:1028D0000004004000080040000C004000100040D0
:1028E000001400404FF0FF31416000210180018160
:1028F000418081727047000070B5134C40F225553D
:102900002946204600F095F8C0B12946204600F03F
:1029100078F8204600F01AF9C1B20C4800F15C03C7
:10292000C170B0F90A209954521C12B24281082A8F
:1029300001D100224281064800F00CF940212046D6
:1029400000F05CF8002070BD005000405C000020EA
:102950000010014010B50C4C40F22551204600F00B
:1029600068F840B1204600F0F1F80849C0B2896A21
:1029700039B100F0CBF92046BDE81040402100F00D
:102980003DB800F0F3F9F6E7001001405C000020CC
:1029900070B50B4C40F225552946204600F049F809
:1029A00000280BD02946204600F02BF8204600F0E6
:1029B000CDF8BDE87040C0B200F086B970BD00002F
:1029C0000044004070B50B4D40F224442146284697
:1029D00000F02FF800280CD000210748FEF764F81B
:1029E000FEF7B4F821462846BDE87040002200F00A
:1029F0003FB870BD0048004028600240C9430180D4
:102A000070470A0A01219140C9430180704700299B
:102A1000818902D041F4005101E021F4005181810B
:102A20007047002A828A01D00A4300E08A438282EA
:102A3000704770B501F01F0501260024C1F3421351
:102A400006FA05F2012B0FD0022B0FD0838A4FEA32
:102A500011210088134206FA01F600EA060001D0AF
:102A600000B10124204670BD8389F0E7038AEEE7B8
:102A700010B5C1F3421301F01F040121A140012B45
:102A800007D0022B07D01430002A026805D00A4371
:102A900004E00C30F8E71030F6E78A43026010BD1E
:102AA0007FB50446008A0D46C98820F44050014392
:102AB0002182A08941F20C618843A9882A891143A7
:102AC0006A8902431143A181A08A20F44071A88938
:102AD0000843A0826846FFF717F81A48844202D0DC
:102AE0001948844201D1039800E00298A1890904A1
:102AF00000EBC00101EB0010296801D5490000E09E
:102B00008900B0FBF1F06422B0FBF2F109010B097E
:102B10006FF018056B4300EB8300A3891D044FF091
:102B2000320306D503EBC000B0FBF2F000F0070063
:102B300005E003EB0010B0FBF2F000F00F000843DB
:102B400020817FBD00100140001401408088C0F347
:102B500008007047C1F3080181807047FEE700005C
:102B60002DE9F0412DED020B9FED3D0B2DED028B7C
:102B70009FED3D8BDDE90254C4F30A50A0F2FF360D
:102B8000142E37DA002E18DA53EC102B9DED020BC1
:102B900051EC100B02F00AFD53EC182B03F0BCF8BB
:102BA00057D2002CA4BF0024254652DA24F000405E
:102BB000284318BF2E4C4CD01AE02E4820FA06F7B6
:102BC00004EA070028431FD053EC102B9DED020BA5
:102BD00051EC100B02F0EAFC53EC182B03F09CF8BC
:102BE00037D2002C03DA4FF48010F0400444BC4389
:102BF00000252EE0332E07DCA6F114004FF0FF3144
:102C000021FA00F73D4206D19DED020BBDEC028B8F
:102C100002B0BDE8F08153EC102B9DED020B51EC9E
:102C2000100B03F0AFF853EC182B03F075F810D22B
:102C3000002C0DDA142E08BF641C09D0C6F1340034
:102C4000012101FA00F02844A84238BF641C05465F
:102C5000BD43CDE902549DED020BD7E70000000013
:102C60009C7500883CE4377E0000000000000000F6
:102C70000000F0BFFFFF0F007047000010B502F02A
:102C8000FEFE9FED0B1B53EC112B02F043FD9FED5D
:102C90000A1B53EC112B02F089FC9FED091B53EC2E
:102CA000112B02F03BFF02F08DFE80B210BD000040
:102CB0000000000000805640000000000000E03FDF
:102CC0009A9999999999694070B50F490D4C8A78EC
:102CD000A054521CD0B28870042812D100254D6235
:102CE0006378A278486A265C5A2E05D12618F678B1
:102CF0005B2E01D1C1E90F32401C48620428F1DB90
:102D00008D7070BDF40200205C000020F0B5164903
:102D1000144A0B79D0545B1CD8B20871082820D112
:102D20000520486292F807C0177856789578D478CD
:102D3000137912F800E0BEF1550F0CD102EB000E32
:102D40009EF801E0BEF10D0F05D1C1E91543C1E9BF
:102D50001365C1E911C7401C48620828E9DB00205F
:102D60000871F0BDF50300205C00002070B5154C23
:102D7000134A002561785054491CC8B2607011781C
:102D80005A290CD01049D1F8900230B10020C1F876
:102D90009002642000F058F807E00120F7E721785E
:102DA000884203D350795B2801D0657070BD50789C
:102DB00060719078A071D078E07110792072F4E79A
:102DC000580300205C000020000042422DED028BE1
:102DD00082B000F0E5FA9FED0D8A4FF47A7500900D
:102DE0003221684601F0AEFB00F06EF8AC42FBDD2C
:102DF000B0EE480AF0EE401AB0EE401AF0EE400A8B
:102E0000FDF726FFC82001F067FBE9E7000000009E
:102E100010B504460420FFF71FF80A484FF47A71F2
:102E2000047014FB01F1012242804FF0E02002699E
:102E300042F0020202614161016941F00101016158
:102E400010BD00001001002070B5044602F020F90A
:102E500001280CD0094D6888844203D3B4FBF0F0FC
:102E600001F03AFB6888B4FBF0F100FB11444FF429
:102E70007A706043BDE8704000F002B81001002095
:102E800070B54FF0E02500216C69094AAB691278F2
:102E90005043AA699A42FCD002D2A3EB020302E09B
:102EA000A4EB02063344194413468142F1D370BDAA
:102EB0001001002003490A885206FCD5C2B28A805C
:102EC0007047000000100140FE4910B5D1F81C22E7
:102ED0009FEDFD0AFD48012A19D1D1F81822012AD7
:102EE00015D1D1F81422012A11D1D1F8102272B9CA
:102EF000D1F820225AB9D1F82422012A07D1D0F8DA
:102F00000422012A03D1D0F80822012A74D0D1F872
:102F10001C229FEDEF4A012A1AD1D1F81822012A6A
:102F200016D1D1F81422012A12D1D1F810227AB97F
:102F3000D1F82022012A0BD1D1F82422012A07D16D
:102F4000D0F80422012A03D1D0F80822012A06D0A1
:102F5000D1F81C229FEDDF2A012A05D01EE0B0EE39
:102F6000441AF0EE411A0EE1D1F81822012A15D1C7
:102F7000D1F8142292B9D1F810227AB9D1F82022CE
:102F8000012A0BD1D1F82422012A07D1D0F804223A
:102F9000012A03D1D0F80822012A06D0D1F81C2238
:102FA000DFEDCD2A012A05D01FE0B0EE421AF0EE87
:102FB000411A13E1D1F81822012A16D1D1F81422AE
:102FC0009AB9D1F81022012A0FD1D1F82022012A72
:102FD0000BD1D1F82422012A07D1D0F80422012AEA
:102FE00003D1D0F80822012A07D0D1F81C229FED86
:102FF000BB3A012A07D020E0C8E1B0EE621ACCE16A
:10300000F0EE400A7DE1D1F81822B2B9D1F81422CD
:103010009AB9D1F81022012A0FD1D1F82022012A21
:103020000BD1D1F82422012A07D1D0F80422012A99
:1030300003D1D0F80822012A04D0D1F81C22012A99
:1030400003D01DE0B0EE431AA7E1D1F81822BAB9B7
:10305000D1F81422012A13D1D1F81022012A0FD15C
:10306000D1F82022012A0BD1D1F82422012A07D13C
:10307000D0F80422012A03D1D0F80822012A07D06F
:10308000D1F81C22DFED960ADFED963A2AB11FE057
:10309000F6EE081AB6EE081AB2E7D1F81822BAB955
:1030A000D1F81422012A13D1D1F81022012A0FD10C
:1030B000D1F82022012A0BD1D1F82422012A07D1EC
:1030C000D0F80422012A03D1D0F80822012A05D021
:1030D000D1F81C22DFED844A3AB122E0F0EE601A0A
:1030E000B0EE601AB0EE630A8AE7D1F81822012A1E
:1030F00017D1D1F81422012A13D1D1F81022012AB4
:103100000FD1D1F82022012A0BD1D1F82422012A93
:1031100007D1D0F80422012A03D1D0F80822012ACD
:1031200004D0D1F81C22012A07D021E0F0EE401A89
:10313000B0EE401AB0EE640A62E7D1F81822012A14
:1031400016D1D1F81422012A12D1D1F81022012A65
:103150000ED1D1F820225AB9D1F82422012A07D160
:10316000D0F80422012A03D1D0F80822012A04D081
:10317000D1F81C22012A0CD025E0F0EE401AB0EE66
:10318000401AB0EE440AF0EE400AFDF761FD04205B
:1031900029E0D1F81822012A15D1D1F81422012AE8
:1031A00011D1D1F81022012A0DD1D1F8202252B923
:1031B000D1F824223AB9D0F80422012A03D1D0F858
:1031C0000822012A04D0D1F81C22012A0FD029E0BC
:1031D000F0EE401AB0EE401AB0EE420AF0EE400AAD
:1031E000FDF736FD0220BDE8104001F075B9D1F8B9
:1031F0001822012A16D1D1F81422012A12D1D1F8AD
:103200001022012A0ED1D1F82022012A0AD1D1F8A8
:1032100024223AB9D0F80422012A03D1D0F8082296
:10322000012A04D0D1F81C22012A07D020E0F0EEB8
:10323000401AB0EE401AB0EE620AE1E6D1F8182268
:10324000012A15D1D1F81422012A11D1D1F8102266
:10325000012A0DD1D1F82022012A09D1D1F8242246
:1032600032B9D0F804221AB9D0F80822012A04D0C1
:10327000D1F81C22012A07D021E0F0EE401AB0EE6E
:10328000401AB0EE430ABBE6D1F81822012A16D143
:10329000D1F81422012A12D1D1F81022012A0ED11C
:1032A000D1F82022012A0AD1D1F82422012A06D1FC
:1032B000D0F804221AB9D0F80822012A19D0D1F87E
:1032C0001C2213E000804042CDCCCC3E00004242A4
:1032D00014AE073F85EB113F52B81E3F7B142E3FC3
:1032E0009A99193F00000000CDCCCCBE012A0CD029
:1032F00025E0F0EE401AB0EE401AF6EE080AB6EEFF
:10330000080ABDE81040FDF7A3BCD1F81822012A35
:1033100015D1D1F81422012A11D1D1F81022012A95
:103320000DD1D1F82022012A09D1D1F82422012A75
:1033300005D1D0F8042212B9D0F8082222B1D1F870
:103340001C22012A07D021E0B0EE631AB0EE600A19
:10335000F0EE411A54E6D1F81822012A16D1D1F81C
:103360001422012A12D1D1F81022012A0ED1D1F84B
:103370002022012A0AD1D1F82412012906D1D0F83D
:103380000412012902D1D0F8080220B1F0EE401A4F
:10339000B0EE401A34E6B0EE641AF0EE411A2FE6B1
:1033A00010B501F075FE012803D0BDE8104001F012
:1033B0007DBE0148406810BD100100201CB500F022
:1033C000ADFD07490120CDE900010202002305A15E
:1033D000074801F031FE01F035FA00201CBD000065
:1033E0000000002073746172745F7461736B00007D
:1033F000913E00082DE9F041184E0F460446F5684D
:103400003068001D00F0DEFE38B9306890F82C10EE
:1034100001208840316981433161601C07D137B197
:103420003168BDE8F0410E48091D00F003BF306867
:103430002C44AC424460316805D2B06BBDE8F04129
:10344000091D00F0DFBE706B091D00F0DBFEB06AE5
:10345000844200D2B462BDE8F08100002C0100205B
:103460006C0700202DE9F041054600F0EFFE2D4EDF
:10347000B068401CB06030682B4F10B1706930B339
:103480002BE03560B068012827D1002404EB8400CC
:1034900007EB800000F0A8FE641C202CF6D3234824
:1034A00000F0A2FE2148143000F09EFE1F48283094
:1034B00000F09AFE1D483C3000F096FE1B4850304C
:1034C00000F092FE194870631430B06305E0306874
:1034D000E96AC06A884200D83560706A0121401CE0
:1034E00070626864E86A326981401143316100EBBF
:1034F000800007EB8000291D00F09CFE00F0E2FE3A
:10350000706900280CD03068E96AC06A884207D226
:1035100007494FF080500860BFF34F8FBFF36F8FA4
:10352000BDE8F0812C0100209C0400201C07002035
:1035300004ED00E010B500F089FE0E4C2068A0B943
:103540000D4800F051FE0C48143000F04DFE0A48C2
:10355000E0601430206100221021052001F0A2FA61
:10356000206010B105A100F083FFBDE8104000F01D
:10357000A9BE00006801002080070020546D725130
:103580000000000070B5124E124D1CE001F0A4F9CD
:10359000306820B1002401F0A9FEA4B901E00124A3
:1035A000F9E700F053FEF068C468201D00F00AFE41
:1035B000A868401EA8606868401E686000F082FE2F
:1035C000204600F052F868680028DFD170BD000086
:1035D000580700202C01002030B4026C0B46002A52
:1035E0000BD0C1681144C1604468A14201D3016895
:1035F000C16030BC1846FCF763BF30BC70472DE992
:10360000F041856B174604460026026C82B1C7B1B3
:10361000E068FCF755FFE168206C091AE160226858
:10362000914202D26168081AE060022F16D017E0BA
:103630002068A8B9606801F0B3FD0646002060600C
:103640000EE0A068FCF73CFF216CA0680844A06075
:103650006168884204D32068A06001E005B16D1E56
:103660006D1CA5633046BDE8F08110B50446006BC3
:1036700000F05AFE2046BDE8104000F055BE0000A4
:1036800010484FF4A041420706D0C01D0D4920F05C
:103690000700411AC1F5A0410B4A00230144C2E9C9
:1036A00000030839103A21F0070111604B600B60EC
:1036B0000B1AC0E9001393604FF000405360D060D4
:1036C00070470000A807002098010020074E4FF027
:1036D0008054074DFFF756FF30680128FAD92C6057
:1036E000BFF34F8FBFF36F8FF4E700009C040020FF
:1036F00004ED00E02DE9F047DDE909840E461746A8
:10370000824691009946089DA522206BFCF74FFF49
:103710006FF00301206B01EB8701084420F00707DD
:10372000780705D040F22B3219A11EA0FCF722FE2B
:1037300000202218315C82F83410315C11B1401C39
:103740001028F6D3002684F84360202D00D31F25CF
:10375000E562C4E91356201D00F051FD04F1180084
:1037600000F04DFD2461C5F120006462A061666532
:1037700084F858604A465146384600F003FB206002
:10378000B8F1000F01D0C8F80040BDE8F087000094
:103790002E2E5C4672656552544F535C7461736B98
:1037A000732E63004572726F723A25732C25640D77
:1037B0000A00000030B5114900E011460A68824253
:1037C000FBD34B685C18844203D1406818444860BE
:1037D000084643681C18944209D1084C103C2468E0
:1037E000A24209D052681A4442600A681268026014
:1037F000814200D0086030BD0460F9E798010020E4
:1038000070B5002441600B4D0061914206D8D11A79
:103810008269914206D2011D286907E09A4203D2CB
:10382000994201D3012403E0011DE86800F0EAFC9D
:10383000204670BD6801002010B5044600F006FD6A
:10384000A06B20B1002400F03DFD204610BD0124F6
:10385000F9E700002DE9F34100980F460026846C3B
:103860002CB940F6CE1216A11AA0FCF783FDA06B6E
:10387000E16B884205D340F6CF1211A115A0FCF7E9
:1038800079FDA06BE16B88420CD294F945503A4621
:1038900069462046FFF7B3FE0646681C05D06D1C3E
:1038A00084F845503046BDE8FC81606A0028F9D0B4
:1038B00004F1240001F0CEFC0028F3D00126F1E74A
:1038C0002E2E5C4672656552544F535C717565755A
:1038D000652E63004572726F723A25732C25640D54
:1038E0000A000000F8B5054614480E46C068C068D6
:1038F000C468201D00F066FCE069012817D1A069AA
:103900002B46411932462046FFF77AFF78B1002056
:103910000346014600902A46204601F0CDFD30B90D
:1039200007494FF4027201F11800FCF723FD616AA8
:1039300001B02046BDE8F0400847000068010020C3
:103940001C54000870B586B02F4E53E00198002833
:1039500006DADDE90301029A90470198002849DB65
:10396000039C606910B1201D00F02CFC05A800F03C
:10397000A7F8054601980A283CD2DFE800F00505C3
:10398000053B273805053B270298A16903460144FA
:103990002A462046FFF734FF00282BD0616A2046D4
:1039A0008847E069012825D1002000900298A1698C
:1039B000002342181946204601F07EFDD0B940F29E
:1039C000213212A117A0FCF7D5FC13E00298A061E8
:1039D00028B94FF44E720DA112A0FCF7CBFCA069E0
:1039E0002B4641191A462046FFF70AFF02E02046FF
:1039F00000F09AFC00231A4601A9306801F08EF805
:103A00000028A3D106B070BD680100202E2E5C46B0
:103A100072656552544F535C74696D6572732E63A1
:103A2000000000004572726F723A25732C25640DF8
:103A30000A000000F8B50D46064600F04DFF684646
:103A400000F03EF80446009810B101F04FFCF8BDBC
:103A50001148ADB101690968D9B10025311B2A4669
:103A6000006800F017FD01F041FC0028EFD10B4980
:103A70004FF080500860BFF34F8FBFF36F8FF8BDDA
:103A8000A642EBD801F032FC21463046FFF72AFF70
:103A9000F8BD0125E2E700006801002004ED00E028
:103AA0000648416B096829B1416BC968C968496812
:103AB000816270474FF0FF31FAE700002C010020CF
:103AC00070B5054601F0F2FA064E0446B06884422D
:103AD00003D200F009F8012000E000202860204611
:103AE000B46070BD68010020F8B5184E26E0C068CB
:103AF000C4680568201D00F065FB616A20468847A0
:103B0000E06901281AD1A0692844A84206D9246195
:103B10006060211DF06800F075FB0FE00020034697
:103B2000014600902A46204601F0C6FC30B90849FB
:103B300040F2923201F11800FCF71CFCF0680168B9
:103B40000029D4D13169C6E90310F8BD680100200D
:103B50001C54000808484068401C05D040F20F1271
:103B600006A111A0FCF706FC502080F31188BFF3DA
:103B70004F8FBFF36F8FFEE77C0100202E2E5C4637
:103B800072656552544F535C706F727461626C65FC
:103B90005C525644535C41524D5F434D34465C7019
:103BA0006F72742E630000004572726F723A257353
:103BB0002C25640D0A000000084CE068016839B14A
:103BC000002139B10020FFF735FFFFF7BBFEF4E716
:103BD0000121F6E7C0680068F5E7000068010020F1
:103BE0002DE9F041044600F031FB94F9455004F111
:103BF000240610E0A06C20B100212046FFF72AFE29
:103C000004E0606A48B1304601F024FB08B100F0DE
:103C100055FD6D1E6DB2002DECDC4FF0FF3684F8C3
:103C2000456000F04FFB00F011FB94F9445004F1A3
:103C3000100709E0206948B1384601F00BFB08B1D4
:103C400000F03CFD6D1E6DB2002DF3DC84F8446085
:103C5000BDE8F04100F036BB2DE9F04105460026F5
:103C600000F03AFE324F386808B9FFF709FDF868EE
:103C700005424FD1002D4DD0083568070BD005F017
:103C80000700C0F108000544680704D0BF2229A13D
:103C900032A0FCF76FFB002D3CD07868854239D804
:103CA000234910310846046801E021460446606853
:103CB000A84202D220680028F7D13868B84684426A
:103CC00028D00E682068086060680836401B1028FD
:103CD0000ED96719780704D0EC2216A11FA0FCF7B3
:103CE00049FB6068401B786038466560FFF762FDFD
:103CF0006168D8F804004246401AC8F80400D8F8B1
:103D00000830984200D29060D8F80C00014300209F
:103D1000C4E9000101F0EAFA700705D04FF4967289
:103D200004A10EA0FCF726FB3046BDE8F0810000A0
:103D3000880100202E2E5C4672656552544F535CFC
:103D4000706F727461626C655C4D656D4D616E671C
:103D50005C686561705F342E630000004572726FAD
:103D6000723A25732C25640D0A0000000449086886
:103D700018B10868026D521C02650868704700009F
:103D80002C01002010B5031F4FF080741C601B1F16
:103D900021F001011960191F044B0B6014390A60EE
:103DA000091F6FF0020244380A6010BD553B00083D
:103DB00070B5044606200E4600EB84001546C9B2D5
:103DC000C0B2FDF74CFE072000EB8400310AC0B200
:103DD000FDF745FE082000EB8400E9B2C0B2FDF714
:103DE0003EFE290A092000EB8400BDE87040C0B205
:103DF000FDF735BE70B5000301F041FE9FED1E1BBF
:103E000053EC112B01F08AFE41EC100B53EC102BFC
:103E10009FED1B0B51EC100B01F07CFC9FED1A1B6E
:103E200053EC112B01F0C2FB41EC100BFEF798FE96
:103E300051EC100B01F0F6FD401EC5B20020FDF75D
:103E4000F1FD044600F07F0040F010010020FDF776
:103E500006FE2946FE20FDF702FE21460020FDF762
:103E6000FEFD0520FEF7F0FF44F0A101BDE8704023
:103E70000020FDF7F4BD000048E17A14AE47ED3FA5
:103E80000000000084D77741000000000000E03F00
:103E90007CB500F0DBF904250024CDE90054EE01E7
:103EA000234632460EA1124801F0C6F80320CDE9A0
:103EB00000040023AA010FA1124801F0BDF8CDE9CA
:103EC00000540023324610A1124801F0B5F8124800
:103ED000006800F08DFBBDE87C4000F0F3B9000005
:103EE00042616C616E63655F7461736B000000001A
:103EF000390800084D5055363035305F7461736BAA
:103F00000000000031180008444154415F7461739F
:103F10006B000000CD2D00080000002010B54FF40C
:103F20004070FDF735FDA820FEF772FFFDF7FCFBA2
:103F3000FDF73AF9FCF760FCFDF762F93220FFF774
:103F400059FF00210846FDF78AFD4FF4E134204671
:103F500000F026F8204600F079F8204600F0D4F86A
:103F6000FDF788FEFCF704FFFCF752FFFCF79EFF0D
:103F7000FCF7FCFFFDF73EFCBDE81040FDF77ABB07
:103F8000B4EEE00AF1EE10FA02D2B0EE600A704729
:103F9000B4EEC10AF1EE10FAF9DDB0EE410A704755
:103FA000F0B50746012187B00846FDF771FD0121F4
:103FB0001020FDF791FD234E072209213046FDF721
:103FC0005FF807220A213046FDF75AF84FF4C06027
:103FD000049002208DF8140000248DF816408DF80E
:103FE000150001258DF8175004A93046FDF70CF88F
:103FF00025208DF818008DF819508DF81A408DF88D
:104000001B5006A8FDF792FCADF80440ADF8064041
:10401000ADF80840ADF80C400C200B4CADF80A0090
:10402000009769462046FEF73BFD012240F22551EC
:104030002046FEF71DFD01212046FEF7E8FC07B0F3
:10404000F0BD00000000024000100140F0B507463E
:1040500087B001210820FDF71BFD01214804FDF771
:1040600023FD264E072205213046FDF709F80722D9
:1040700006213046FDF704F86020049002208DF8F8
:10408000140000248DF816408DF8150001258DF8D8
:10409000175004A93046FCF7B7FF194E01213046EE
:1040A000FEF7B5FCFCF752FD26208DF818008DF8C0
:1040B00019508DF81A408DF81B5006A8FDF736FCF4
:1040C000ADF808400C20ADF80440ADF80A000097A8
:1040D000ADF80640ADF80C4069463046FEF7E0FC0E
:1040E000012240F225513046FEF7C2FC0122102188
:1040F0000448FCF7EAFC07B0F0BD0000000C0240E9
:10410000004400402860024070B5012188B0880456
:10411000FDF7CAFC01210220FDF7BAFC264E07225A
:104120000B213046FCF7ACFFF014049002208DF810
:10413000140000248DF8164003208DF81500012589
:104140008DF8175004A93046FCF75EFF4FF4E130BC
:1041500000900C20ADF80A00ADF80640ADF80C4018
:10416000ADF80840ADF80440144C69462046FEF70F
:1041700097FC012240212046FEF753FC01212046F6
:10418000FEF745FC012240F224412046FEF770FC78
:1041900027208DF818008DF81B508DF819508DF8D8
:1041A0001A5006A8FDF7C2FB012210210448FCF7B3
:1041B0008CFC08B070BD00000004024000480040C4
:1041C00028600240D0E9013201699A60D0E90123F8
:1041D0005A604A68824201D182684A6000220261C4
:1041E0000868401E0860704700F108014FF0FF3278
:1041F000C0E90112C1600161002101607047002126
:104200000161704730B50C68621C02D000F10802F1
:1042100002E0026904E01A4653681D68A542FAD913
:1042200053684B6099608A60516008610168491C5D
:10423000016030BD42684A6093688B609368596042
:10424000916008610168491C01607047502080F34B
:104250001188BFF34F8FBFF36F8F09494868401C27
:10426000486001280AD10748006810F0FF0F05D008
:1042700040F2B91204A10FA0FCF77CB8704700000F
:104280007C01002004ED00E02E2E5C467265655234
:10429000544F535C706F727461626C655C5256442B
:1042A000535C41524D5F434D34465C706F72742EC7
:1042B000630000004572726F723A25732C25640DFD
:1042C0000A00000010B5084C606828B94FF4E0728D
:1042D00006A111A0FCF74EF86068401E606001D195
:1042E00080F3118810BD00007C0100202E2E5C465A
:1042F00072656552544F535C706F727461626C6585
:104300005C525644535C41524D5F434D34465C70A1
:104310006F72742E630000004572726F723A2573DB
:104320002C25640D0A00000070B500282AD0164D17
:10433000A0F108046068E968084205D14FF4A07252
:1043400012A11CA0FCF716F8206828B140F2411217
:104350000EA118A0FCF70EF86068E968084211D0B9
:104360002268002A0ED18843606000F0B5FA6068C8
:104370006968084468602046FFF71CFABDE8704091
:1043800000F0B4BF70BD0000880100202E2E5C46F6
:1043900072656552544F535C706F727461626C65E4
:1043A0005C4D656D4D616E675C686561705F342E54
:1043B000630000004572726F723A25732C25640DFC
:1043C0000A00000006484FF47A710068B0FBF1F172
:1043D0004FF0E020491E4161072101617047000054
:1043E0000400002010B5FBF79FFF104C10280CD3E1
:1043F00000F1E02090F8F0032178884205D24FF4D4
:1044000040720BA115A0FBF7B5FF18480068A16822
:1044100000F4E060884207D9BDE810404FF44472D0
:1044200003A10EA0FBF7A6BF10BD00007C01002079
:104430002E2E5C4672656552544F535C706F7274D9
:1044400061626C655C525644535C41524D5F434D12
:1044500034465C706F72742E630000004572726F98
:10446000723A25732C25640D0A0000000CED00E063
:1044700010B5074B002253F832401CB1521C082AD9
:10448000F9D310BD43F8321003EBC201486010BDF0
:104490005C04002070B515460E460446FFF7D6FEB4
:1044A00094F944100020491C01D184F8440094F987
:1044B0004510491C01D184F84500FFF703FFA06BAC
:1044C00028B92A46314604F1240000F027F9204695
:1044D000BDE87040FFF784BB10B5040012D00E4950
:1044E000096B29B140F2CF420CA111A0FBF742FFAA
:1044F00000F0F2F900212046FEF77CFF00F0F6FE06
:10450000002807D10E494FF080500860BFF34F8F4D
:10451000BFF36F8F10BD00002C0100202E2E5C46D3
:1045200072656552544F535C7461736B732E6300F4
:104530004572726F723A25732C25640D0A000000D3
:1045400004ED00E02DE9F0410E4605004FF00004B7
:1045500005D140F279421BA11FA0FBF70BFF2EB93A
:1045600040F27A4217A11CA0FBF704FF1E4F386BE4
:1045700028B140F27B4213A117A0FBF7FBFE00F02D
:10458000ABF9FA6828688119904202D9884202D8AA
:1045900004E0884201D8914200D9012429601CB16D
:1045A000881A0021FEF726FF00F0A0FE002807D1A0
:1045B0000E494FF080500860BFF34F8FBFF36F8FED
:1045C000BDE8F0812E2E5C4672656552544F535CF7
:1045D0007461736B732E63004572726F723A257348
:1045E0002C25640D0A0000002C01002004ED00E0E1
:1045F00070B50446FFF72AFE234D04B92C68201D30
:10460000FFF7E0FD58B9E06A204A00EB800152F85C
:10461000211021B901218140286988432861A06ABD
:1046200018B104F11800FFF7CDFD686A401C6862FC
:104630002868844207D1211D1548FFF7FBFD6868F3
:10464000401C686007E0A868401EA8602046FFF78D
:104650000CF8FFF725FAFFF735FE6869002812D03D
:10466000286884420FD1286B28B140F2654209A125
:104670000DA0FBF77FFE10494FF080500860BFF39C
:104680004F8FBFF36F8F70BD2C0100209C04002062
:10469000580700202E2E5C4672656552544F535CBD
:1046A0007461736B732E63004572726F723A257377
:1046B0002C25640D0A00000004ED00E001490120F2
:1046C000C86170472C01002070B50D46040005D16B
:1046D00040F6063207A10CA0FBF74CFE0E4801681D
:1046E00020461831FFF78EFD2846BDE870400121B5
:1046F000FEF780BE2E2E5C4672656552544F535CA9
:104700007461736B732E63004572726F723A257316
:104710002C25640D0A0000002C01002070B5144601
:104720000E46050005D140F6313209A10DA0FBF778
:1047300021FE1048016828461831FFF77BFD0CB1B7
:104740004FF0FF3621463046BDE87040FEF752BEBE
:104750002E2E5C4672656552544F535C7461736BC8
:10476000732E63004572726F723A25732C25640DA7
:104770000A0000002C01002070B5040039D01D4D46
:10478000E06A2968C96A884233D2A069002804DB3C
:104790002868C06AC0F12000A061E06A164E00EBF4
:1047A0008000616906EB800081421FD1201DFFF768
:1047B00009FD012150B9E06A00EB800256F8222081
:1047C00022B92A6901FA00F082432A612868C06A86
:1047D000E0622A6981401143296100EB800006EB09
:1047E0008000211DBDE87040FFF724BD2868C06A25
:1047F000E06270BD2C0100209C04002010B5040074
:1048000005D140F6C13205A109A0FBF7B3FD0C4864
:10481000016A2160C068606010BD00002E2E5C46F9
:1048200072656552544F535C7461736B732E6300F1
:104830004572726F723A25732C25640D0A000000D0
:104840002C0100201CB517480024CDE90040234668
:10485000822215A1164800F0EFFB012803D100F0D9
:10486000F1FD01280AD0401C1BD102B040F2847235
:10487000BDE810400FA114A0FBF77CBD502080F3D1
:104880001188BFF34F8FBFF36F8F06484FF0FF3192
:104890002C38816201214161C460BDE81C4000F0F8
:1048A00061B81CBD5801002049444C45000000007F
:1048B000CD3600082E2E5C4672656552544F535C0F
:1048C0007461736B732E63004572726F723A257355
:1048D0002C25640D0A0000000248016B491C01638D
:1048E000704700002C01002070B5134D286B10B1EB
:1048F0000120E86170BD0020E86128690F4EB0FA20
:1049000080F0C0F11F0000EB800456F8240028B9A5
:1049100040F6F6220AA10FA0FBF72CFD06EB84005F
:1049200000F10802416849684160914201D149683B
:104930004160C868286070BD2C0100209C040020E4
:104940002E2E5C4672656552544F535C7461736BD6
:10495000732E63004572726F723A25732C25640DB5
:104960000A0000001CB5304C20683049884205D14F
:1049700040F259122EA139A0FBF7FCFC20682B490C
:10498000491E884205D14FF4AD7229A133A0FBF72F
:10499000F1FC364C20780190FF20207020788DF8B3
:1049A00000009DF800009DF8001000F0F000884223
:1049B00005D040F273121EA128A0FBF7DBFC9DF886
:1049C00000002B4A00F0500010700720906007E0B4
:1049D0009068401E90609DF8000040008DF8000037
:1049E0009DF800000006F3D4107A000200F4E060A5
:1049F0009060019820700C482030016841F47001EB
:104A00000160016841F070410160FFF7DBFC0020AC
:104A10005060FBF751FC1748016841F040410160CC
:104A2000FBF73AFC00201CBD00ED00E071C20F4115
:104A30002E2E5C4672656552544F535C706F7274D3
:104A400061626C655C525644535C41524D5F434D0C
:104A500034465C706F72742E630000004572726F92
:104A6000723A25732C25640D0A00000000E400E072
:104A70007C01002034EF00E010B5502080F3118855
:104A8000BFF34F8FBFF36F8F00F016FB18B10449CF
:104A90004FF080500860002080F3118810BD0000A6
:104AA00004ED00E02DE9F04117460E46050005D162
:104AB0004FF4C47210A115A0FBF75CFCBEB105FB5E
:104AC00006F05430FFF7C8F804000ED004F154008B
:104AD0007EB12060C4E90F562046012100F0E0F8C5
:104AE00084F8507000212046A164BDE8F0810020C8
:104AF000E7E72460EEE700002E2E5C467265655203
:104B0000544F535C71756575652E63004572726F05
:104B1000723A25732C25640D0A0000002DE9FF4F21
:104B200083B09B468A4604004FF0000605D140F250
:104B3000DC4251A155A0FBF71DFCBAF1000F07D1D3
:104B4000206C28B140F2DD424BA150A0FBF712FCD3
:104B500000F09EFA38B9059828B14FF49C6246A13E
:104B60004AA0FBF707FC4FF000094FF08057DFF831
:104B70002C81FFF76BFBA56B45B351462046E668D9
:104B8000FEF72AFDBBF1000F13D0E660606A50B15A
:104B900004F1240000F05EFB28B1C8F80070BFF3F8
:104BA0004F8FBFF36F8FFFF78DFB012007B0BDE87C
:104BB000F08F6D1EA563206810B9FFF7D7F860600D
:104BC00020690028EFD004F11000E3E7059808B150
:104BD0001EB106E0FFF776FB27E06846FFF70EFE02
:104BE0000126FFF76FFBFFF777FEFFF72FFB94F926
:104BF0004400401C01D184F8449094F94500401CC5
:104C000001D184F84590FFF75DFB05A9684600F0E7
:104C1000CFF9002820460AD0FEF7E2FF00F066FB3D
:104C20002046FEF709FE0028A3D00020BEE7FEF7CD
:104C300003FED8B1206830B9FFF708FB6068FFF7C2
:104C40009BFDFFF73FFB04F124000599FFF73CFDB6
:104C50002046FEF7C5FF00F049FB002889D1C8F8BF
:104C60000070BFF34F8FBFF36F8F82E72046FEF7D0
:104C7000B7FF00F03BFB7CE72E2E5C467265655269
:104C8000544F535C71756575652E63004572726F84
:104C9000723A25732C25640D0A00000004ED00E033
:104CA00070B50D46040005D140F21B121CA121A0D5
:104CB000FBF760FBFFF7CAFAD4E90F20216802FB7B
:104CC000001161600021A1632168A1600A46D4E956
:104CD0000F01401E00FB0121E16021464FF0FF3033
:104CE00001F8440F487004F110004DB1FFF77CFA51
:104CF00004F12400FFF778FAFFF7E4FA012070BD11
:104D000021690029F8D000F0A5FA0028F4D00D4957
:104D10004FF080500860BFF34F8FBFF36F8FEBE70A
:104D20002E2E5C4672656552544F535C71756575E5
:104D3000652E63004572726F723A25732C25640DDF
:104D40000A00000004ED00E02DE9FF4F83B0994612
:104D50008B4604004FF0000605D140F2D92252A143
:104D600056A0FBF707FBBBF1000F07D1206C28B161
:104D700040F2DA224CA151A0FBF7FCFAB9F1020F84
:104D800008D1E06B012805D040F2DB2246A14BA000
:104D9000FBF7F0FA00F07CF938B9059828B140F239
:104DA000DE2241A145A0FBF7E5FA4FF0000A4FF0E3
:104DB0008057DFF81881FFF749FAA06BE16B884252
:104DC00006D3B9F1020F03D0059800B316B325E05E
:104DD0004A4659462046FEF712FCA16C21B14946CD
:104DE0002046FEF737FD05E0616A19B104F12400A1
:104DF00000F030FA28B1C8F80070BFF34F8FBFF34E
:104E00006F8FFFF75FFA012007B0BDE8F08FFFF763
:104E100059FA21E06846FFF7F1FC0126FFF752FA44
:104E2000FFF75AFDFFF712FA94F94400401C01D134
:104E300084F844A094F94500401C01D184F845A0B1
:104E4000FFF740FA05A9684600F0B2F830B12046F5
:104E5000FEF7C6FE00F04AFA0020D5E7FFF7F6F9A4
:104E6000A06BE16B884201D1012500E00025FFF72E
:104E700029FA95B104F110000599FFF725FC2046A9
:104E8000FEF7AEFE00F032FA002894D1C8F80070A8
:104E9000BFF34F8FBFF36F8F8DE72046FEF7A0FE65
:104EA00000F024FA87E700002E2E5C4672656552FA
:104EB000544F535C71756575652E63004572726F52
:104EC000723A25732C25640D0A00000004ED00E001
:104ED0002DE9F047984615468946040005D140F271
:104EE0009F322AA12EA0FBF745FAB9F1000F07D196
:104EF000206C28B14FF4687224A129A0FBF73AFA7C
:104F0000B8F1020F08D1E06B012805D040F2A132C0
:104F10001EA123A0FBF72EFAFFF764FA5020EFF34F
:104F2000118780F31188BFF34F8FBFF36F8FA06B92
:104F3000E16B884207D3B8F1020F04D0002087F359
:104F40001188BDE8F08794F94560424649462046FD
:104F5000FEF755FB701C04D0761C84F845600120D8
:104F6000EDE7A06C012620B141462046FEF772FC19
:104F700006E0606A0028F2D004F1240000F06AF92B
:104F80000028ECD0002DEAD02E60E8E72E2E5C46FB
:104F900072656552544F535C71756575652E63007B
:104FA0004572726F723A25732C25640D0A00000059
:104FB00070B50D46040005D140F6CB3214A119A0FE
:104FC000FBF7D8F92DB940F6CC3211A115A0FBF7AB
:104FD000D1F9FFF73BF9174AD06829684B1C0FD06D
:104FE0002368126A934202D0626882420AD96268D8
:104FF000801A884206D2081A28602046FFF7FEFB76
:10500000002400E00124FFF75DF9204670BD000098
:105010002E2E5C4672656552544F535C7461736BFF
:10502000732E63004572726F723A25732C25640DDE
:105030000A0000002C0100202DE9FF5F8346DDE916
:105040000E87994616468A469000FEF705FE050033
:105050001AD05C20FEF700FE040012D02563002168
:10506000CDE90241CDE900874B46324651465846CC
:10507000FEF740FB2046FEF7F5F9012004B0BDE83D
:10508000F09F2846FFF750F94FF0FF30F6E7000099
:105090000548416919B1006B18B100207047012023
:1050A00070470220704700002C0100200148C068B2
:1050B000704700002C0100202DE9F0412D4F002603
:1050C000386B40B1B869401CB861F86900B101267D
:1050D0003046BDE8F081FD686D1CFD6011D1786B34
:1050E000006828B140F6D91223A128A0FBF742F9A5
:1050F000786BB96B7963B863386A401C3862FEF725
:10510000CFFCB86ADFF89480854209D3786B0068D9
:1051100080B1786BC068C468606885420DD2B8629F
:105120003868C06A00EB800158F821000128CCD90A
:105130000126CAE74FF0FF30F1E7201DFFF742F8E4
:10514000A06A18B104F11800FFF73CF8E06A0121E9
:105150003A6981401143396100EB800108EB81001D
:10516000211DFFF767F8E06A3968C96A8842CDD324
:105170000126CBE72C0100202E2E5C46726565527D
:10518000544F535C7461736B732E63004572726F7E
:10519000723A25732C25640D0A0000009C0400203F
:1051A00070B504004FF000063CD01F4D28688442C3
:1051B00005D040F6C7621DA121A0FBF7DBF8206DEA
:1051C00028B940F6C96219A11DA0FBF7D3F8206DDC
:1051D000401E2065E26CE16A914223D010BB201D85
:1051E000FEF7F0FF1A49012250B9E06A00EB800394
:1051F00051F8233023B92B6902FA00F083432B6165
:10520000E06CE062C0F12000A061E06A2B6982409E
:105210001A432A6100EB800001EB8000211DFFF79B
:1052200009F80126304670BD2C0100202E2E5C4668
:1052300072656552544F535C7461736B732E6300D7
:105240004572726F723A25732C25640D0A000000B6
:105250009C0400202DE9F041C068C4682CB940F6D8
:10526000613216A11AA0FBF785F804F11800074671
:10527000FEF7A8FF1A4D286B012660B13946194880
:10528000FEF7D8FFE06A2968C96A884213D901206D
:10529000EE61BDE8F081201DFEF794FFE06A2A6907
:1052A00006FA00F1114329610F4900EB800001EB80
:1052B0008000211DE4E70020EBE700002E2E5C4675
:1052C00072656552544F535C7461736B732E630047
:1052D0004572726F723A25732C25640D0A00000026
:1052E0002C010020440700209C0400202DE9F047F9
:1052F0002B4D00242746286B28B94FF4FD6229A1C5
:105300002DA0FBF737F8FEF7A1FF286B401E28639E
:10531000286BE8BBA8682C490126C8B3A1F52A79F7
:105320008846D8F80010E9B1D8F80C00C46804F138
:105330001800FEF747FF201DFEF744FFE06A2A69C8
:1053400006FA00F11143296100EB800109EB8100AD
:10535000211DFEF76FFFE06A2968C96A8842E0D321
:10536000EE61DEE70CB1FEF79BFBAC693CB1FFF7E9
:10537000A3FE00B1EE61641EF9D10020A861E869C6
:1053800030B11249012738070860BFF34F8F00E0A2
:1053900001E0BFF36F8FFEF795FF3846BDE8F08759
:1053A0002C0100202E2E5C4672656552544F535CD2
:1053B0007461736B732E63004572726F723A25735A
:1053C0002C25640D0A0000004407002004ED00E0D5
:1053D0002DE9F0470746994616460D462C20DDF884
:1053E00020A0FEF739FC040014D0B8464F46D14641
:1053F0002DB94FF4C67209A10EA0FAF7BBFFFEF754
:1054000099F804F11801C4F8008081E8E002201D39
:10541000FEF7F5FE2046BDE8F08700002E2E5C4624
:1054200072656552544F535C74696D6572732E6377
:10543000000000004572726F723A25732C25640DCE
:105440000A0000001CB50024FEF774F80C48006840
:1054500068B10B491F20091DCDE9000100234FF45D
:10546000827208A10948FFF7E7FD040005D140F268
:10547000331207A10CA0FAF77DFF20461CBD0000E7
:1054800068010020546D722053766300B93B000818
:105490002E2E5C4672656552544F535C74696D657F
:1054A00072732E63000000004572726F723A2573AA
:1054B0002C25640D0A0000002DE9FF47DDF830A01F
:1054C000994690460D4606004FF0000705D14FF46F
:1054D000D37212A117A0FAF74DFF1A4C206880B1C1
:1054E000CDE900580296062D11DAFFF7D1FD02280A
:1054F0004FF0000309D0002269462068FFF724FC22
:10550000074604B03846BDE8F0875246F4E700236A
:105510004A466946FFF7DCFCF2E700002E2E5C46A7
:1055200072656552544F535C74696D6572732E6376
:10553000000000004572726F723A25732C25640DCD
:105540000A0000006801002021F00042A2F1605230
:10555000B2F5801F01F0004328BFD2F17F6C0BD958
:105560005FEA001C43EAC20242EB507018BF70476A
:1055700028BF20F001007047B2F5801FBCBF18465D
:1055800070474FEA410C1CF5001F02D2084600F09C
:10559000F4BC70B500F06CFB00000089FFF7F6BFAB
:1055A0004FF00040A0F580007047000010B591EA70
:1055B000030F48BF83F0004300F1F883841A71EBB6
:1055C000030C05D2121943EB0C03001B61EB0C0119
:1055D000DFF824E14FEA1154A4EB135C1EEA430FF9
:1055E00018BF9EEA445F73D023EA0E03DCF1200E5D
:1055F00021EA045143F4801332D322FA0CFE10EB5B
:105600000E0023FA0CFE41EB0E01CCF1200E03FA42
:105610000EFE10EB0E0051F10001B1F5801FCCF130
:10562000200E32D201EB045112FA0EF2BDE8104006
:1056300058BF7047401C38BF5FEA420218BF70472E
:10564000002814BF20F0010041F100014FEA41039E
:1056500013F5001F38BF7047A1F1C04100F056BBE1
:10566000012A43EB0302ACF1200CDCF11F0E32BF28
:105670004FF0000E23FA0CF310EB030041EB045142
:10568000B4EB115FD0D0A1EB045101F580114908B2
:105690005FEA300001EB04510ED350F1000038BF37
:1056A00012FA0EFE08D1BDE81040C9E7401C38BF11
:1056B0005FEA4202CAD1C3E7BDE810404FEA4103A6
:1056C00013F5001F38BF7047A1F1C04100F01EBBA9
:1056D0009EEA445F08D011EA5E0FBDE8104004BFA7
:1056E00001F0004100207047BDE8104070B500F0A7
:1056F000BFFA00BF64FBBE3E0000E0FF491058BF88
:10570000C1F140415B1058BFC3F140438B42EFF3FE
:10571000008070472DE9C04130B4DFF8A0C23CEAF8
:10572000111418BF3CEA131400F0EC8081EA030561
:105730001CEA111444EAD57418BF1CEA131500F0D2
:10574000C780A4EB05044FF0004545EAC12145EAB6
:10575000C32341EA505143EA525304F17F74994202
:1057600004F500344FEAC0204FEAC22208BF90423D
:1057700000F09C804FEA13650FF24016765D4FEA09
:10578000134506FB05F7C7F1807706FB07F74FEADD
:10579000D737A7FB03687642C8F58038A7FB06CE4B
:1057A00038BFA8F1010807FB08E64FF0000EA6FB82
:1057B000028CE6FB03CEDCF1000CCEF1004E38BFCC
:1057C000AEF1010EA6FB0C584FF000074FF000059C
:1057D000E6FB0E87A1FB08C6A0FB07CE16EB0E0664
:1057E00045F10005E1FB076515F1E04E7EBFA4F52C
:1057F00080345FEA46066D4116F1800745F10005E9
:105800004FEA17274FEA066647EA0567A6F1DE4624
:10581000B6F1805F4FEA15251FD9384624F0010CF8
:1058200005EBC471BCF1FE6F01EB0C1102D8F0BCAA
:10583000BDE8008124425CBF01F5801E9EEAC47F62
:1058400002D4F0BCBDE80081244238D4F0BCA1F100
:10585000C041BDE8004100F059BA4FEAD22242EA05
:1058600043524FEAD323A7FB02864FEAD02040EAF7
:10587000415007FB03661EEA0E0F4FEAD12105FBDC
:10588000026658BFA6EB0056B6EB00564FEA520E22
:105890004EEAC37E18EB0E0E56EB530EBDD518EB39
:1058A00002085E417F1C55F10005B6E74FF48015F4
:1058B0004FF000074FF000064FF00008ADE7F0BCD6
:1058C0004FF0000001F1C04101F00041BDE800814E
:1058D00011EA0C1F0CEA131500D00CE013EA0C1FA0
:1058E00000F025804FF00000F0BC81EA030101F0D8
:1058F0000041BDE80081F0BCBDE8004181EA030140
:1059000000F004BAF0BCBDE8004170B500F0B0F999
:10591000097EFC3E00F007B881EA03014FF0000069
:1059200001F00041704781EA030100F0EFB9F0BCDB
:10593000BDE800414FF0000021497047FFFDFBF931
:10594000F7F5F4F2F0EEEDEBE9E8E6E4E3E1E0DEB2
:10595000DDDBDAD8D7D5D4D3D1D0CFCDCCCBCAC824
:10596000C7C6C5C4C2C1C0BFBEBDBCBBBAB9B8B74B
:10597000B6B5B4B3B2B1B0AFAEADACABAAA9A8A83E
:10598000A7A6A5A4A3A3A2A1A09F9F9E9D9C9C9B0C
:105990009A999998979796959594939392919190B7
:1059A0008F8F8E8E8D8C8C8B8B8A89898888878748
:1059B0008685858484838382828181800000FF07BD
:1059C0000000F87F4FEA41034FEA5353A3F5806389
:1059D000D3F11E03C8BFD3F1210C0CDD4FF0004200
:1059E00042EAC12242EA505232FA03FC8CEAE17CDC
:1059F000ACEBE1707047102BC4BF0020704703F57B
:105A0000787CBCF1FF3F04D06FF0004282EA2100B5
:105A1000704770B500F02CF949922480002070473F
:105A2000F2E700004FEA1153A3F58063D3F11E03A0
:105A3000A8BFD3F1200C08DB4FF0004242EAC1229C
:105A400052EA505232FA03F0704709420BD4102B3D
:105A5000C4BF0020704703F5787CBCF1FF3F05D040
:105A60004FF0FF3070474FF00000704770B500F006
:105A7000FFF800BF4992248000207047F0E7B0FA99
:105A800080F310FA03F10AD0C3F11D0303F580631C
:105A90004FEA41504FEA035202EBD12170474FF0D9
:105AA0000000704751EA030C17D41CF5801F58BF43
:105AB000BCF5801F00F10680994218BF704708BFEF
:105AC0009042704707D711F5801F58BF13F5801F0C
:105AD00019D499427047894270471CF5801F08D538
